{
  "_format": "hh-sol-artifact-1",
  "contractName": "Channel",
  "sourceName": "contracts/channel.sol",
  "abi": [
    {
      "inputs": [
        {
          "internalType": "address",
          "name": "_token",
          "type": "address"
        }
      ],
      "stateMutability": "nonpayable",
      "type": "constructor"
    },
    {
      "anonymous": false,
      "inputs": [
        {
          "indexed": true,
          "internalType": "address",
          "name": "from",
          "type": "address"
        },
        {
          "indexed": true,
          "internalType": "address",
          "name": "to",
          "type": "address"
        },
        {
          "indexed": false,
          "internalType": "uint256",
          "name": "amount",
          "type": "uint256"
        }
      ],
      "name": "Defund",
      "type": "event"
    },
    {
      "anonymous": false,
      "inputs": [
        {
          "indexed": true,
          "internalType": "address",
          "name": "from",
          "type": "address"
        },
        {
          "indexed": true,
          "internalType": "address",
          "name": "to",
          "type": "address"
        },
        {
          "indexed": false,
          "internalType": "uint256",
          "name": "amount",
          "type": "uint256"
        }
      ],
      "name": "Fund",
      "type": "event"
    },
    {
      "anonymous": false,
      "inputs": [
        {
          "indexed": true,
          "internalType": "address",
          "name": "from",
          "type": "address"
        },
        {
          "indexed": true,
          "internalType": "address",
          "name": "to",
          "type": "address"
        },
        {
          "indexed": false,
          "internalType": "uint64",
          "name": "time",
          "type": "uint64"
        }
      ],
      "name": "Lock",
      "type": "event"
    },
    {
      "anonymous": false,
      "inputs": [
        {
          "indexed": false,
          "internalType": "address",
          "name": "from",
          "type": "address"
        },
        {
          "indexed": false,
          "internalType": "address",
          "name": "to",
          "type": "address"
        },
        {
          "indexed": false,
          "internalType": "uint256",
          "name": "amount",
          "type": "uint256"
        }
      ],
      "name": "Transfer",
      "type": "event"
    },
    {
      "inputs": [
        {
          "internalType": "uint256",
          "name": "amount",
          "type": "uint256"
        }
      ],
      "name": "airdrop",
      "outputs": [
        {
          "internalType": "uint256",
          "name": "",
          "type": "uint256"
        }
      ],
      "stateMutability": "nonpayable",
      "type": "function"
    },
    {
      "inputs": [
        {
          "internalType": "address",
          "name": "account",
          "type": "address"
        }
      ],
      "name": "balanceOf",
      "outputs": [
        {
          "internalType": "uint256",
          "name": "",
          "type": "uint256"
        }
      ],
      "stateMutability": "view",
      "type": "function"
    },
    {
      "inputs": [],
      "name": "decimals",
      "outputs": [
        {
          "internalType": "uint8",
          "name": "",
          "type": "uint8"
        }
      ],
      "stateMutability": "view",
      "type": "function"
    },
    {
      "inputs": [
        {
          "internalType": "uint256",
          "name": "amount",
          "type": "uint256"
        }
      ],
      "name": "deposit",
      "outputs": [
        {
          "internalType": "bool",
          "name": "",
          "type": "bool"
        }
      ],
      "stateMutability": "nonpayable",
      "type": "function"
    },
    {
      "inputs": [
        {
          "internalType": "address",
          "name": "from",
          "type": "address"
        },
        {
          "internalType": "address",
          "name": "to",
          "type": "address"
        }
      ],
      "name": "getChannelByAddresses",
      "outputs": [
        {
          "components": [
            {
              "internalType": "uint256",
              "name": "value",
              "type": "uint256"
            },
            {
              "internalType": "enum Channel.State",
              "name": "state",
              "type": "uint8"
            },
            {
              "components": [
                {
                  "internalType": "uint256",
                  "name": "_value",
                  "type": "uint256"
                }
              ],
              "internalType": "struct Counters.Counter",
              "name": "round",
              "type": "tuple"
            },
            {
              "internalType": "uint64",
              "name": "lockTime",
              "type": "uint64"
            }
          ],
          "internalType": "struct Channel.ChannelState",
          "name": "",
          "type": "tuple"
        }
      ],
      "stateMutability": "view",
      "type": "function"
    },
    {
      "inputs": [
        {
          "internalType": "address",
          "name": "sender",
          "type": "address"
        }
      ],
      "name": "getChannelReciversBySender",
      "outputs": [
        {
          "internalType": "address[]",
          "name": "",
          "type": "address[]"
        }
      ],
      "stateMutability": "view",
      "type": "function"
    },
    {
      "inputs": [
        {
          "internalType": "address",
          "name": "reciver",
          "type": "address"
        }
      ],
      "name": "getChannelSendersByReciver",
      "outputs": [
        {
          "internalType": "address[]",
          "name": "",
          "type": "address[]"
        }
      ],
      "stateMutability": "view",
      "type": "function"
    },
    {
      "inputs": [
        {
          "internalType": "bytes32",
          "name": "_messageHash",
          "type": "bytes32"
        }
      ],
      "name": "getEthSignedMessageHash",
      "outputs": [
        {
          "internalType": "bytes32",
          "name": "",
          "type": "bytes32"
        }
      ],
      "stateMutability": "pure",
      "type": "function"
    },
    {
      "inputs": [
        {
          "internalType": "address",
          "name": "reciver",
          "type": "address"
        },
        {
          "internalType": "uint256",
          "name": "amount",
          "type": "uint256"
        },
        {
          "internalType": "uint64",
          "name": "round",
          "type": "uint64"
        }
      ],
      "name": "getMessageHash",
      "outputs": [
        {
          "internalType": "bytes32",
          "name": "",
          "type": "bytes32"
        }
      ],
      "stateMutability": "pure",
      "type": "function"
    },
    {
      "inputs": [
        {
          "internalType": "address",
          "name": "reciver",
          "type": "address"
        },
        {
          "internalType": "uint256",
          "name": "amount",
          "type": "uint256"
        },
        {
          "internalType": "uint64",
          "name": "round",
          "type": "uint64"
        }
      ],
      "name": "getSigMsgHash",
      "outputs": [
        {
          "internalType": "bytes32",
          "name": "",
          "type": "bytes32"
        }
      ],
      "stateMutability": "pure",
      "type": "function"
    },
    {
      "inputs": [
        {
          "internalType": "address",
          "name": "to",
          "type": "address"
        },
        {
          "internalType": "uint256",
          "name": "value",
          "type": "uint256"
        }
      ],
      "name": "open",
      "outputs": [],
      "stateMutability": "nonpayable",
      "type": "function"
    },
    {
      "inputs": [
        {
          "internalType": "address",
          "name": "from",
          "type": "address"
        },
        {
          "internalType": "uint256",
          "name": "amount",
          "type": "uint256"
        },
        {
          "internalType": "uint64",
          "name": "round",
          "type": "uint64"
        },
        {
          "internalType": "bytes",
          "name": "sig",
          "type": "bytes"
        }
      ],
      "name": "reciverCollectPayment",
      "outputs": [],
      "stateMutability": "nonpayable",
      "type": "function"
    },
    {
      "inputs": [
        {
          "internalType": "bytes32",
          "name": "_ethSignedMessageHash",
          "type": "bytes32"
        },
        {
          "internalType": "bytes",
          "name": "_signature",
          "type": "bytes"
        }
      ],
      "name": "recoverSigner",
      "outputs": [
        {
          "internalType": "address",
          "name": "",
          "type": "address"
        }
      ],
      "stateMutability": "pure",
      "type": "function"
    },
    {
      "inputs": [
        {
          "internalType": "address",
          "name": "to",
          "type": "address"
        },
        {
          "internalType": "uint256",
          "name": "amount",
          "type": "uint256"
        }
      ],
      "name": "senderFundChannel",
      "outputs": [],
      "stateMutability": "nonpayable",
      "type": "function"
    },
    {
      "inputs": [
        {
          "internalType": "address",
          "name": "to",
          "type": "address"
        }
      ],
      "name": "senderLock",
      "outputs": [],
      "stateMutability": "nonpayable",
      "type": "function"
    },
    {
      "inputs": [
        {
          "internalType": "address",
          "name": "to",
          "type": "address"
        }
      ],
      "name": "senderWithdrawal",
      "outputs": [],
      "stateMutability": "nonpayable",
      "type": "function"
    },
    {
      "inputs": [
        {
          "internalType": "bytes",
          "name": "sig",
          "type": "bytes"
        }
      ],
      "name": "splitSignature",
      "outputs": [
        {
          "internalType": "bytes32",
          "name": "r",
          "type": "bytes32"
        },
        {
          "internalType": "bytes32",
          "name": "s",
          "type": "bytes32"
        },
        {
          "internalType": "uint8",
          "name": "v",
          "type": "uint8"
        }
      ],
      "stateMutability": "pure",
      "type": "function"
    },
    {
      "inputs": [],
      "name": "token",
      "outputs": [
        {
          "internalType": "contract IERC20",
          "name": "",
          "type": "address"
        }
      ],
      "stateMutability": "view",
      "type": "function"
    },
    {
      "inputs": [
        {
          "internalType": "address",
          "name": "to",
          "type": "address"
        },
        {
          "internalType": "uint256",
          "name": "amount",
          "type": "uint256"
        }
      ],
      "name": "transfer",
      "outputs": [
        {
          "internalType": "bool",
          "name": "",
          "type": "bool"
        }
      ],
      "stateMutability": "nonpayable",
      "type": "function"
    },
    {
      "inputs": [
        {
          "internalType": "uint256",
          "name": "amount",
          "type": "uint256"
        }
      ],
      "name": "withdrawal",
      "outputs": [
        {
          "internalType": "bool",
          "name": "",
          "type": "bool"
        }
      ],
      "stateMutability": "nonpayable",
      "type": "function"
    }
  ],
  "bytecode": "0x608060405260018054600160a01b600160e81b0319167c120000000000015180000000000000000000000000000000000000000017905534801561004257600080fd5b5060405161193238038061193283398101604081905261006191610086565b600180546001600160a01b0319166001600160a01b03929092169190911790556100b6565b60006020828403121561009857600080fd5b81516001600160a01b03811681146100af57600080fd5b9392505050565b61186d806100c56000396000f3fe608060405234801561001057600080fd5b506004361061016c5760003560e01c8063835fc6ca116100cd578063b54f333611610081578063cd38e07011610066578063cd38e0701461036f578063fa54080114610382578063fc0c546a146103e357600080fd5b8063b54f333614610349578063b6b55f251461035c57600080fd5b806397dc4a13116100b257806397dc4a13146102f2578063a7bb580314610305578063a9059cbb1461033657600080fd5b8063835fc6ca146102a457806397aba7f9146102c757600080fd5b80633ebf411a1161012457806367d0e5051161010957806367d0e5051461024857806370a082311461025b5780637f968ac71461028457600080fd5b80633ebf411a146102145780634cc3bf6f1461023557600080fd5b806317df34f11161015557806317df34f11461019957806329c15398146101c2578063313ce567146101d557600080fd5b80630a0e5c9d146101715780631360569d14610186575b600080fd5b61018461017f36600461147b565b6103f6565b005b6101846101943660046114a5565b61068d565b6101ac6101a73660046114a5565b6107a5565b6040516101b991906114c7565b60405180910390f35b6101846101d03660046115cf565b61081b565b600154610202907c0100000000000000000000000000000000000000000000000000000000900460ff1681565b60405160ff90911681526020016101b9565b610227610222366004611637565b610983565b6040519081526020016101b9565b6101846102433660046114a5565b6109f8565b6101ac6102563660046114a5565b610b9e565b6102276102693660046114a5565b6001600160a01b031660009081526020819052604090205490565b610297610292366004611673565b610c12565b6040516101b991906116bc565b6102b76102b2366004611714565b610cb2565b60405190151581526020016101b9565b6102da6102d536600461172d565b610dce565b6040516001600160a01b0390911681526020016101b9565b610227610300366004611714565b610e4d565b610318610313366004611774565b610e89565b60408051938452602084019290925260ff16908201526060016101b9565b6102b761034436600461147b565b610efd565b61018461035736600461147b565b6110f3565b6102b761036a366004611714565b61125b565b61022761037d366004611637565b61137f565b610227610390366004611714565b6040517f19457468657265756d205369676e6564204d6573736167653a0a3332000000006020820152603c8101829052600090605c01604051602081830303815290604052805190602001209050919050565b6001546102da906001600160a01b031681565b336000908152602081905260409020548082111561046f5760405162461bcd60e51b815260206004820152602b60248201527f796f7520646f206e6f742068617665207468652062616c616e636520746f206660448201526a1d5b990818da185b9b995b60aa1b60648201526084015b60405180910390fd5b3360009081526002602081815260408084206001600160a01b038816855290915282206001015460ff16908111156104a9576104a96116a6565b1461051c5760405162461bcd60e51b815260206004820152603660248201527f6368616e6e656c20616c7265616479206f70656e6564207573652073656e646560448201527f7246756e644368616e6e656c282920696e7374656164000000000000000000006064820152608401610466565b33600081815260208181526040808320868603905580518083018252838152815160808101835287815260018185018181528285018490526060830187905296865260028086528487206001600160a01b038c1688529095529290942084518155945185830180549296949193909260ff19169184908111156105a1576105a16116a6565b02179055506040828101515160028301556060909201516003918201805467ffffffffffffffff191667ffffffffffffffff90921691909117905533600081815260209283528381208054600181810183559183528483200180547fffffffffffffffffffffffff00000000000000000000000000000000000000009081166001600160a01b038c16908117909255818452600486528684208054938401815584529285902090910180549092168317909155925186815290917f2d48ac6acd9c250f93c75e6a8dd61f6f1c062b7f83c1f604cf41a3352df683fc91015b60405180910390a350505050565b338160016001600160a01b03808416600090815260026020818152604080842094871684529390529190206001015460ff16908111156106cf576106cf6116a6565b1461071c5760405162461bcd60e51b815260206004820152601360248201527f4368616e6e656c206973206e6f74206f70656e000000000000000000000000006044820152606401610466565b3360008181526002602081815260408084206001600160a01b0389168086529083529381902060018101805460ff19169094179093556003909201805467ffffffffffffffff19164267ffffffffffffffff8116918217909255925192835293917ffc045bfcf0d75e572946e42f3b53bac7ec2a832f291f8cce267876742d820ebd910161067f565b6001600160a01b03811660009081526004602090815260409182902080548351818402810184019094528084526060939283018282801561080f57602002820191906000526020600020905b81546001600160a01b031681526001909101906020018083116107f1575b50505050509050919050565b6001600160a01b038416600090815260026020818152604080842033855290915290912001548267ffffffffffffffff161461085657600080fd5b6001600160a01b038416600090815260026020908152604080832033845290915290205483111561088657600080fd5b600061089333858561137f565b9050846001600160a01b03166108a98284610dce565b6001600160a01b0316146108bc57600080fd5b6001600160a01b0385166000908152600260209081526040808320338452909152812080548692906108ef9084906117c7565b90915550506001600160a01b0385166000908152600260208181526040808420338552825280842090920180546001019055829052812080548692906109369084906117da565b909155505060405184815233906001600160a01b038716907f3bb082152a6aeca4accd7a549583361cf3387c060a33681f9bc6f22fa6333f8c906020015b60405180910390a35050505050565b6040516bffffffffffffffffffffffff19606085901b166020820152603481018390527fffffffffffffffff00000000000000000000000000000000000000000000000060c083901b166054820152600090605c015b6040516020818303038152906040528051906020012090509392505050565b3360008181526002602081815260408084206001600160a01b03871685529091529091206001015483919060ff1681811115610a3657610a366116a6565b14610a835760405162461bcd60e51b815260206004820152601560248201527f4368616e6e656c206973206e6f74206c6f636b656400000000000000000000006044820152606401610466565b3360009081526002602090815260408083206001600160a01b038716845290915290206003015460015467ffffffffffffffff91821691610add9174010000000000000000000000000000000000000000900416826117ed565b67ffffffffffffffff164210610af257600080fd5b3360008181526002602090815260408083206001600160a01b038916845282528083208054908490559383529082905281208054839290610b349084906117da565b90915550503360008181526002602090815260408083206001600160a01b038a16808552908352928190206001908101805460ff19169091179055518481529192917f3bb082152a6aeca4accd7a549583361cf3387c060a33681f9bc6f22fa6333f8c9101610974565b6001600160a01b03811660009081526003602090815260409182902080548351818402810184019094528084526060939283018282801561080f576020028201919060005260206000209081546001600160a01b031681526001909101906020018083116107f15750505050509050919050565b610c1a611422565b6001600160a01b038084166000908152600260208181526040808420948716845293815291839020835160808101909452805484526001810154909284019160ff90911690811115610c6e57610c6e6116a6565b6002811115610c7f57610c7f6116a6565b815260408051602081810183526002850154825283015260039092015467ffffffffffffffff1691015290505b92915050565b3360008181526020819052604081205490919080841115610cd257600080fd5b6001600160a01b0382811660008181526020819052604090819020878503905560015490517fa9059cbb0000000000000000000000000000000000000000000000000000000081526004810192909252602482018790529091169063a9059cbb906044016020604051808303816000875af1158015610d55573d6000803e3d6000fd5b505050506040513d601f19601f82011682018060405250810190610d799190611815565b50604080516001600160a01b0384168152600060208201529081018590527fddf252ad1be2c89b69c2b068fc378daa952ba7f163c4a11628f55a4df523b3ef9060600160405180910390a15060019392505050565b600080600080610ddd85610e89565b6040805160008152602081018083528b905260ff8316918101919091526060810184905260808101839052929550909350915060019060a0016020604051602081039080840390855afa158015610e38573d6000803e3d6000fd5b5050604051601f190151979650505050505050565b33600090815260208190526040812080548391908390610e6e9084906117da565b90915550503360009081526020819052604090205492915050565b60008060008351604114610edf5760405162461bcd60e51b815260206004820152601860248201527f696e76616c6964207369676e6174757265206c656e67746800000000000000006044820152606401610466565b50505060208101516040820151606090920151909260009190911a90565b60003380610f735760405162461bcd60e51b815260206004820152602560248201527f45524332303a207472616e736665722066726f6d20746865207a65726f20616460448201527f64726573730000000000000000000000000000000000000000000000000000006064820152608401610466565b6001600160a01b038416610fef5760405162461bcd60e51b815260206004820152602360248201527f45524332303a207472616e7366657220746f20746865207a65726f206164647260448201527f65737300000000000000000000000000000000000000000000000000000000006064820152608401610466565b6001600160a01b0381166000908152602081905260409020548381101561107e5760405162461bcd60e51b815260206004820152602660248201527f45524332303a207472616e7366657220616d6f756e742065786365656473206260448201527f616c616e636500000000000000000000000000000000000000000000000000006064820152608401610466565b6001600160a01b0382811660008181526020818152604080832089870390559389168083529184902080548901905583519283528201529081018590527fddf252ad1be2c89b69c2b068fc378daa952ba7f163c4a11628f55a4df523b3ef9060600160405180910390a1506001949350505050565b338260016001600160a01b03808416600090815260026020818152604080842094871684529390529190206001015460ff1690811115611135576111356116a6565b146111825760405162461bcd60e51b815260206004820152601360248201527f4368616e6e656c206973206e6f74206f70656e000000000000000000000000006044820152606401610466565b33600090815260208190526040902054808411156111f65760405162461bcd60e51b815260206004820152602b60248201527f796f7520646f206e6f742068617665207468652062616c616e636520746f206660448201526a1d5b990818da185b9b995b60aa1b6064820152608401610466565b336000818152602081815260408083208886039055600282528083206001600160a01b038a1680855290835292819020805489019055518781529192917f2d48ac6acd9c250f93c75e6a8dd61f6f1c062b7f83c1f604cf41a3352df683fc9101610974565b6001546040517f23b872dd00000000000000000000000000000000000000000000000000000000815233600482018190523060248301526044820184905260009290916001600160a01b03909116906323b872dd906064016020604051808303816000875af11580156112d2573d6000803e3d6000fd5b505050506040513d601f19601f820116820180604052508101906112f69190611815565b6112ff57600080fd5b6001600160a01b038116600090815260208190526040812080548592906113279084906117da565b909155505060408051600081526001600160a01b03831660208201529081018490527fddf252ad1be2c89b69c2b068fc378daa952ba7f163c4a11628f55a4df523b3ef9060600160405180910390a150600192915050565b6040516bffffffffffffffffffffffff19606085901b166020820152603481018390527fffffffffffffffff00000000000000000000000000000000000000000000000060c083901b166054820152600090605c0160408051601f198184030181529082905280516020918201207f19457468657265756d205369676e6564204d6573736167653a0a33320000000091830191909152603c820152605c016109d9565b60408051608081019091526000808252602082019081526020016114526040518060200160405280600081525090565b8152600060209091015290565b80356001600160a01b038116811461147657600080fd5b919050565b6000806040838503121561148e57600080fd5b6114978361145f565b946020939093013593505050565b6000602082840312156114b757600080fd5b6114c08261145f565b9392505050565b6020808252825182820181905260009190848201906040850190845b818110156115085783516001600160a01b0316835292840192918401916001016114e3565b50909695505050505050565b803567ffffffffffffffff8116811461147657600080fd5b634e487b7160e01b600052604160045260246000fd5b600082601f83011261155357600080fd5b813567ffffffffffffffff8082111561156e5761156e61152c565b604051601f8301601f19908116603f011681019082821181831017156115965761159661152c565b816040528381528660208588010111156115af57600080fd5b836020870160208301376000602085830101528094505050505092915050565b600080600080608085870312156115e557600080fd5b6115ee8561145f565b93506020850135925061160360408601611514565b9150606085013567ffffffffffffffff81111561161f57600080fd5b61162b87828801611542565b91505092959194509250565b60008060006060848603121561164c57600080fd5b6116558461145f565b92506020840135915061166a60408501611514565b90509250925092565b6000806040838503121561168657600080fd5b61168f8361145f565b915061169d6020840161145f565b90509250929050565b634e487b7160e01b600052602160045260246000fd5b8151815260208201516080820190600381106116e857634e487b7160e01b600052602160045260246000fd5b80602084015250604083015151604083015267ffffffffffffffff606084015116606083015292915050565b60006020828403121561172657600080fd5b5035919050565b6000806040838503121561174057600080fd5b82359150602083013567ffffffffffffffff81111561175e57600080fd5b61176a85828601611542565b9150509250929050565b60006020828403121561178657600080fd5b813567ffffffffffffffff81111561179d57600080fd5b6117a984828501611542565b949350505050565b634e487b7160e01b600052601160045260246000fd5b81810381811115610cac57610cac6117b1565b80820180821115610cac57610cac6117b1565b67ffffffffffffffff81811683821601908082111561180e5761180e6117b1565b5092915050565b60006020828403121561182757600080fd5b815180151581146114c057600080fdfea264697066735822122029289e1c0b9d2fcd230cd422ad47c4a4d6ae9aa72dbb12e0853af7e25a217dc764736f6c63430008110033",
  "linkReferences": {},
  "deployedLinkReferences": {}
}