{
  "_format": "hh-sol-artifact-1",
  "contractName": "Channel",
  "sourceName": "contracts/channel.sol",
  "abi": [
    {
      "inputs": [
        {
          "internalType": "address",
          "name": "_token",
          "type": "address"
        }
      ],
      "stateMutability": "nonpayable",
      "type": "constructor"
    },
    {
      "anonymous": false,
      "inputs": [
        {
          "indexed": true,
          "internalType": "uint64",
          "name": "ID",
          "type": "uint64"
        },
        {
          "indexed": false,
          "internalType": "address",
          "name": "user",
          "type": "address"
        },
        {
          "indexed": false,
          "internalType": "uint256",
          "name": "amount",
          "type": "uint256"
        }
      ],
      "name": "Defund",
      "type": "event"
    },
    {
      "anonymous": false,
      "inputs": [
        {
          "indexed": true,
          "internalType": "uint64",
          "name": "ID",
          "type": "uint64"
        },
        {
          "indexed": false,
          "internalType": "uint256",
          "name": "amount",
          "type": "uint256"
        }
      ],
      "name": "Fund",
      "type": "event"
    },
    {
      "anonymous": false,
      "inputs": [
        {
          "indexed": true,
          "internalType": "uint64",
          "name": "ID",
          "type": "uint64"
        },
        {
          "indexed": false,
          "internalType": "uint64",
          "name": "time",
          "type": "uint64"
        }
      ],
      "name": "Lock",
      "type": "event"
    },
    {
      "anonymous": false,
      "inputs": [
        {
          "indexed": false,
          "internalType": "address",
          "name": "from",
          "type": "address"
        },
        {
          "indexed": false,
          "internalType": "address",
          "name": "to",
          "type": "address"
        },
        {
          "indexed": false,
          "internalType": "uint256",
          "name": "amount",
          "type": "uint256"
        }
      ],
      "name": "Transfer",
      "type": "event"
    },
    {
      "inputs": [
        {
          "internalType": "uint256",
          "name": "amount",
          "type": "uint256"
        }
      ],
      "name": "airdrop",
      "outputs": [
        {
          "internalType": "uint256",
          "name": "",
          "type": "uint256"
        }
      ],
      "stateMutability": "nonpayable",
      "type": "function"
    },
    {
      "inputs": [
        {
          "internalType": "address",
          "name": "account",
          "type": "address"
        }
      ],
      "name": "balanceOf",
      "outputs": [
        {
          "internalType": "uint256",
          "name": "",
          "type": "uint256"
        }
      ],
      "stateMutability": "view",
      "type": "function"
    },
    {
      "inputs": [
        {
          "internalType": "uint256",
          "name": "",
          "type": "uint256"
        }
      ],
      "name": "channels",
      "outputs": [
        {
          "internalType": "address",
          "name": "from",
          "type": "address"
        },
        {
          "internalType": "address",
          "name": "to",
          "type": "address"
        },
        {
          "internalType": "uint256",
          "name": "value",
          "type": "uint256"
        },
        {
          "internalType": "enum Channel.State",
          "name": "state",
          "type": "uint8"
        },
        {
          "components": [
            {
              "internalType": "uint256",
              "name": "_value",
              "type": "uint256"
            }
          ],
          "internalType": "struct Counters.Counter",
          "name": "round",
          "type": "tuple"
        },
        {
          "internalType": "uint64",
          "name": "lockTime",
          "type": "uint64"
        }
      ],
      "stateMutability": "view",
      "type": "function"
    },
    {
      "inputs": [],
      "name": "decimals",
      "outputs": [
        {
          "internalType": "uint8",
          "name": "",
          "type": "uint8"
        }
      ],
      "stateMutability": "view",
      "type": "function"
    },
    {
      "inputs": [
        {
          "internalType": "uint256",
          "name": "amount",
          "type": "uint256"
        }
      ],
      "name": "deposit",
      "outputs": [
        {
          "internalType": "bool",
          "name": "",
          "type": "bool"
        }
      ],
      "stateMutability": "nonpayable",
      "type": "function"
    },
    {
      "inputs": [
        {
          "internalType": "address",
          "name": "reciver",
          "type": "address"
        }
      ],
      "name": "getChannelIDsByReciver",
      "outputs": [
        {
          "internalType": "uint64[]",
          "name": "",
          "type": "uint64[]"
        }
      ],
      "stateMutability": "view",
      "type": "function"
    },
    {
      "inputs": [
        {
          "internalType": "address",
          "name": "sender",
          "type": "address"
        }
      ],
      "name": "getChannelIDsBySender",
      "outputs": [
        {
          "internalType": "uint64[]",
          "name": "",
          "type": "uint64[]"
        }
      ],
      "stateMutability": "view",
      "type": "function"
    },
    {
      "inputs": [
        {
          "internalType": "bytes32",
          "name": "_messageHash",
          "type": "bytes32"
        }
      ],
      "name": "getEthSignedMessageHash",
      "outputs": [
        {
          "internalType": "bytes32",
          "name": "",
          "type": "bytes32"
        }
      ],
      "stateMutability": "pure",
      "type": "function"
    },
    {
      "inputs": [
        {
          "internalType": "uint64",
          "name": "id",
          "type": "uint64"
        },
        {
          "internalType": "uint256",
          "name": "amount",
          "type": "uint256"
        },
        {
          "internalType": "uint64",
          "name": "round",
          "type": "uint64"
        }
      ],
      "name": "getMessageHash",
      "outputs": [
        {
          "internalType": "bytes32",
          "name": "",
          "type": "bytes32"
        }
      ],
      "stateMutability": "pure",
      "type": "function"
    },
    {
      "inputs": [
        {
          "internalType": "address",
          "name": "to",
          "type": "address"
        },
        {
          "internalType": "uint256",
          "name": "value",
          "type": "uint256"
        }
      ],
      "name": "open",
      "outputs": [
        {
          "internalType": "uint64",
          "name": "",
          "type": "uint64"
        }
      ],
      "stateMutability": "nonpayable",
      "type": "function"
    },
    {
      "inputs": [
        {
          "internalType": "uint64",
          "name": "id",
          "type": "uint64"
        },
        {
          "internalType": "uint256",
          "name": "amount",
          "type": "uint256"
        },
        {
          "internalType": "uint64",
          "name": "round",
          "type": "uint64"
        },
        {
          "internalType": "bytes",
          "name": "sig",
          "type": "bytes"
        }
      ],
      "name": "reciverCollectPayment",
      "outputs": [
        {
          "internalType": "bool",
          "name": "",
          "type": "bool"
        }
      ],
      "stateMutability": "nonpayable",
      "type": "function"
    },
    {
      "inputs": [
        {
          "internalType": "bytes32",
          "name": "_ethSignedMessageHash",
          "type": "bytes32"
        },
        {
          "internalType": "bytes",
          "name": "_signature",
          "type": "bytes"
        }
      ],
      "name": "recoverSigner",
      "outputs": [
        {
          "internalType": "address",
          "name": "",
          "type": "address"
        }
      ],
      "stateMutability": "pure",
      "type": "function"
    },
    {
      "inputs": [
        {
          "internalType": "uint64",
          "name": "id",
          "type": "uint64"
        },
        {
          "internalType": "uint256",
          "name": "amount",
          "type": "uint256"
        }
      ],
      "name": "senderFundChannel",
      "outputs": [
        {
          "internalType": "bool",
          "name": "",
          "type": "bool"
        }
      ],
      "stateMutability": "nonpayable",
      "type": "function"
    },
    {
      "inputs": [
        {
          "internalType": "uint64",
          "name": "id",
          "type": "uint64"
        }
      ],
      "name": "senderLock",
      "outputs": [
        {
          "internalType": "uint64",
          "name": "",
          "type": "uint64"
        }
      ],
      "stateMutability": "nonpayable",
      "type": "function"
    },
    {
      "inputs": [
        {
          "internalType": "uint64",
          "name": "id",
          "type": "uint64"
        }
      ],
      "name": "senderWithdrawal",
      "outputs": [
        {
          "internalType": "uint256",
          "name": "",
          "type": "uint256"
        }
      ],
      "stateMutability": "nonpayable",
      "type": "function"
    },
    {
      "inputs": [
        {
          "internalType": "bytes",
          "name": "sig",
          "type": "bytes"
        }
      ],
      "name": "splitSignature",
      "outputs": [
        {
          "internalType": "bytes32",
          "name": "r",
          "type": "bytes32"
        },
        {
          "internalType": "bytes32",
          "name": "s",
          "type": "bytes32"
        },
        {
          "internalType": "uint8",
          "name": "v",
          "type": "uint8"
        }
      ],
      "stateMutability": "pure",
      "type": "function"
    },
    {
      "inputs": [],
      "name": "token",
      "outputs": [
        {
          "internalType": "contract IERC20",
          "name": "",
          "type": "address"
        }
      ],
      "stateMutability": "view",
      "type": "function"
    },
    {
      "inputs": [
        {
          "internalType": "address",
          "name": "to",
          "type": "address"
        },
        {
          "internalType": "uint256",
          "name": "amount",
          "type": "uint256"
        }
      ],
      "name": "transfer",
      "outputs": [
        {
          "internalType": "bool",
          "name": "",
          "type": "bool"
        }
      ],
      "stateMutability": "nonpayable",
      "type": "function"
    },
    {
      "inputs": [
        {
          "internalType": "uint256",
          "name": "amount",
          "type": "uint256"
        }
      ],
      "name": "withdrawal",
      "outputs": [
        {
          "internalType": "bool",
          "name": "",
          "type": "bool"
        }
      ],
      "stateMutability": "nonpayable",
      "type": "function"
    }
  ],
  "bytecode": "0x6080604052600380546001600160481b0319166812000000000001518017905534801561002b57600080fd5b50604051611eba380380611eba83398101604081905261004a9161006f565b600180546001600160a01b0319166001600160a01b039290921691909117905561009f565b60006020828403121561008157600080fd5b81516001600160a01b038116811461009857600080fd5b9392505050565b611e0c806100ae6000396000f3fe608060405234801561001057600080fd5b50600436106101515760003560e01c80639ec6253b116100cd578063c31ace3b11610081578063e5949b5d11610066578063e5949b5d14610393578063fa540801146103b8578063fc0c546a1461041957600080fd5b8063c31ace3b1461030d578063d8d561c41461038057600080fd5b8063a9059cbb116100b2578063a9059cbb146102d4578063b13f2392146102e7578063b6b55f25146102fa57600080fd5b80639ec6253b14610290578063a7bb5803146102a357600080fd5b80634339179f11610124578063835fc6ca11610109578063835fc6ca1461023f57806397aba7f91461025257806397dc4a131461027d57600080fd5b80634339179f146101f357806370a082311461021657600080fd5b80630a0e5c9d14610156578063313ce567146101875780633a3c74eb146101b25780634126ee1f146101d2575b600080fd5b6101696101643660046119f4565b61042c565b60405167ffffffffffffffff90911681526020015b60405180910390f35b6003546101a09068010000000000000000900460ff1681565b60405160ff909116815260200161017e565b6101c56101c0366004611a1e565b6107f7565b60405161017e9190611a40565b6101e56101e0366004611aa6565b610897565b60405190815260200161017e565b610206610201366004611b64565b610b84565b604051901515815260200161017e565b6101e5610224366004611a1e565b6001600160a01b031660009081526020819052604090205490565b61020661024d366004611bcc565b610f54565b610265610260366004611be5565b611070565b6040516001600160a01b03909116815260200161017e565b6101e561028b366004611bcc565b6110ef565b61016961029e366004611aa6565b61112b565b6102b66102b1366004611c2c565b611334565b60408051938452602084019290925260ff169082015260600161017e565b6102066102e23660046119f4565b6113a8565b6102066102f5366004611c69565b61159e565b610206610308366004611bcc565b6117d2565b6101e561031b366004611c85565b6040517fffffffffffffffff00000000000000000000000000000000000000000000000060c085811b821660208401526028830185905283901b1660488201526000906050016040516020818303038152906040528051906020012090509392505050565b6101c561038e366004611a1e565b6118f6565b6103a66103a1366004611bcc565b61196a565b60405161017e96959493929190611cd7565b6101e56103c6366004611bcc565b6040517f19457468657265756d205369676e6564204d6573736167653a0a3332000000006020820152603c8101829052600090605c01604051602081830303815290604052805190602001209050919050565b600154610265906001600160a01b031681565b33600090815260208190526040812054808311156104a55760405162461bcd60e51b815260206004820152602b60248201527f796f7520646f206e6f742068617665207468652062616c616e636520746f206660448201526a1d5b990818da185b9b995b60aa1b60648201526084015b60405180910390fd5b3360009081526005602090815260408083206001600160a01b038816845290915290205460ff16156104d657600080fd5b33600090815260208181526040808320868503905560025481519283019091529181526040805160c0810182523381526001600160a01b038881166020830190815292820188815260016060840181815260808501879052600060a08601819052600480548085018255915285517f8a35acfbc15ff81a39ae7d344fd709f28e8600b4aa8c65c6b64bfe7fe36bd19b600690920291820180549187167fffffffffffffffffffffffff000000000000000000000000000000000000000092831617815597517f8a35acfbc15ff81a39ae7d344fd709f28e8600b4aa8c65c6b64bfe7fe36bd19c830180549190971691161790945591517f8a35acfbc15ff81a39ae7d344fd709f28e8600b4aa8c65c6b64bfe7fe36bd19d84015590517f8a35acfbc15ff81a39ae7d344fd709f28e8600b4aa8c65c6b64bfe7fe36bd19e9092018054939493909160ff199091169083600281111561063657610636611cc1565b021790555060808201518160040160008201518160000155505060a08201518160050160006101000a81548167ffffffffffffffff021916908367ffffffffffffffff160217905550505060066000336001600160a01b03166001600160a01b031681526020019081526020016000208290806001815401808255809150506001900390600052602060002090600491828204019190066008029091909190916101000a81548167ffffffffffffffff021916908367ffffffffffffffff16021790555060076000876001600160a01b03166001600160a01b031681526020019081526020016000208290806001815401808255809150506001900390600052602060002090600491828204019190066008029091909190916101000a81548167ffffffffffffffff021916908367ffffffffffffffff160217905550610781600280546001019055565b3360009081526005602090815260408083206001600160a01b038a168452825291829020805460ff19166001179055905186815267ffffffffffffffff8416917fa5915433a96000c5e16c635b6acf2e0f8efc24639924f87e8925edeae086edc9910160405180910390a2509150505b92915050565b6001600160a01b03811660009081526007602090815260409182902080548351818402810184019094528084526060939283018282801561088b57602002820191906000526020600020906000905b82829054906101000a900467ffffffffffffffff1667ffffffffffffffff16815260200190600801906020826007010492830192600103820291508084116108465790505b50505050509050919050565b600081600260048267ffffffffffffffff16815481106108b9576108b9611d3a565b600091825260209091206003600690920201015460ff1660028111156108e1576108e1611cc1565b1461092e5760405162461bcd60e51b815260206004820152601560248201527f4368616e6e656c206973206e6f74206c6f636b65640000000000000000000000604482015260640161049c565b82336001600160a01b031660048267ffffffffffffffff168154811061095657610956611d3a565b60009182526020909120600690910201546001600160a01b0316146109bd5760405162461bcd60e51b815260206004820152601e60248201527f596f7520617265206e6f7420746865206368616e6e656c2073656e6465720000604482015260640161049c565b600060048567ffffffffffffffff16815481106109dc576109dc611d3a565b600091825260209091206005600690920201015460035467ffffffffffffffff9182169250610a0c911682611d66565b67ffffffffffffffff164210610a2157600080fd5b600060048667ffffffffffffffff1681548110610a4057610a40611d3a565b9060005260206000209060060201600201549050600060048767ffffffffffffffff1681548110610a7357610a73611d3a565b600091825260208083206002600690930201919091019290925533815290819052604081208054839290610aa8908490611d8e565b92505081905550600160048767ffffffffffffffff1681548110610ace57610ace611d3a565b60009182526020909120600360069092020101805460ff19166001836002811115610afb57610afb611cc1565b02179055508567ffffffffffffffff167ff9f0c87d3dfd5bbe44a93c8a33fb3edead935e79216f687d0d4b2c23b6899cbf60048867ffffffffffffffff1681548110610b4957610b49611d3a565b600091825260209182902060069091020154604080516001600160a01b0390921682529181018590520160405180910390a295945050505050565b600084336001600160a01b031660048267ffffffffffffffff1681548110610bae57610bae611d3a565b60009182526020909120600160069092020101546001600160a01b031614610c3e5760405162461bcd60e51b815260206004820152602160248201527f596f7520617265206e6f7420746865206368616e6e656c20726563697069656e60448201527f7400000000000000000000000000000000000000000000000000000000000000606482015260840161049c565b610c7360048767ffffffffffffffff1681548110610c5e57610c5e611d3a565b90600052602060002090600602016004015490565b8467ffffffffffffffff1614610c8857600080fd5b60048667ffffffffffffffff1681548110610ca557610ca5611d3a565b906000526020600020906006020160020154851115610cc357600080fd5b600060048767ffffffffffffffff1681548110610ce257610ce2611d3a565b600091825260208220600690910201546001600160a01b03169150610d688888886040517fffffffffffffffff00000000000000000000000000000000000000000000000060c085811b821660208401526028830185905283901b1660488201526000906050016040516020818303038152906040528051906020012090509392505050565b90506000610dc3826040517f19457468657265756d205369676e6564204d6573736167653a0a3332000000006020820152603c8101829052600090605c01604051602081830303815290604052805190602001209050919050565b9050826001600160a01b0316610dd98288611070565b6001600160a01b031614610dec57600080fd5b8760048a67ffffffffffffffff1681548110610e0a57610e0a611d3a565b90600052602060002090600602016002016000828254610e2a9190611da1565b92505081905550610e6b60048a67ffffffffffffffff1681548110610e5157610e51611d3a565b906000526020600020906006020160040180546001019055565b8760008060048c67ffffffffffffffff1681548110610e8c57610e8c611d3a565b60009182526020808320600160069093020191909101546001600160a01b0316835282019290925260400181208054909190610ec9908490611d8e565b90915550506004805467ffffffffffffffff8b16917ff9f0c87d3dfd5bbe44a93c8a33fb3edead935e79216f687d0d4b2c23b6899cbf9183908110610f1057610f10611d3a565b600091825260209182902060069091020160010154604080516001600160a01b0390921682529181018c90520160405180910390a250600198975050505050505050565b3360008181526020819052604081205490919080841115610f7457600080fd5b6001600160a01b0382811660008181526020819052604090819020878503905560015490517fa9059cbb0000000000000000000000000000000000000000000000000000000081526004810192909252602482018790529091169063a9059cbb906044016020604051808303816000875af1158015610ff7573d6000803e3d6000fd5b505050506040513d601f19601f8201168201806040525081019061101b9190611db4565b50604080516001600160a01b0384168152600060208201529081018590527fddf252ad1be2c89b69c2b068fc378daa952ba7f163c4a11628f55a4df523b3ef9060600160405180910390a15060019392505050565b60008060008061107f85611334565b6040805160008152602081018083528b905260ff8316918101919091526060810184905260808101839052929550909350915060019060a0016020604051602081039080840390855afa1580156110da573d6000803e3d6000fd5b5050604051601f190151979650505050505050565b33600090815260208190526040812080548391908390611110908490611d8e565b90915550503360009081526020819052604090205492915050565b600081600160048267ffffffffffffffff168154811061114d5761114d611d3a565b600091825260209091206003600690920201015460ff16600281111561117557611175611cc1565b146111c25760405162461bcd60e51b815260206004820152601360248201527f4368616e6e656c206973206e6f74206f70656e00000000000000000000000000604482015260640161049c565b82336001600160a01b031660048267ffffffffffffffff16815481106111ea576111ea611d3a565b60009182526020909120600690910201546001600160a01b0316146112515760405162461bcd60e51b815260206004820152601e60248201527f596f7520617265206e6f7420746865206368616e6e656c2073656e6465720000604482015260640161049c565b600260048567ffffffffffffffff168154811061127057611270611d3a565b60009182526020909120600360069092020101805460ff1916600183600281111561129d5761129d611cc1565b021790555060004290508060048667ffffffffffffffff16815481106112c5576112c5611d3a565b6000918252602091829020600690910201600501805467ffffffffffffffff191667ffffffffffffffff9384161790556040518383168152918716917f4e237f8cd7965d0e48a5c710d3176908de6a8f34dc03ad0923f7dd445b9ef5d7910160405180910390a2949350505050565b6000806000835160411461138a5760405162461bcd60e51b815260206004820152601860248201527f696e76616c6964207369676e6174757265206c656e6774680000000000000000604482015260640161049c565b50505060208101516040820151606090920151909260009190911a90565b6000338061141e5760405162461bcd60e51b815260206004820152602560248201527f45524332303a207472616e736665722066726f6d20746865207a65726f20616460448201527f6472657373000000000000000000000000000000000000000000000000000000606482015260840161049c565b6001600160a01b03841661149a5760405162461bcd60e51b815260206004820152602360248201527f45524332303a207472616e7366657220746f20746865207a65726f206164647260448201527f6573730000000000000000000000000000000000000000000000000000000000606482015260840161049c565b6001600160a01b038116600090815260208190526040902054838110156115295760405162461bcd60e51b815260206004820152602660248201527f45524332303a207472616e7366657220616d6f756e742065786365656473206260448201527f616c616e63650000000000000000000000000000000000000000000000000000606482015260840161049c565b6001600160a01b0382811660008181526020818152604080832089870390559389168083529184902080548901905583519283528201529081018590527fddf252ad1be2c89b69c2b068fc378daa952ba7f163c4a11628f55a4df523b3ef9060600160405180910390a1506001949350505050565b600082600160048267ffffffffffffffff16815481106115c0576115c0611d3a565b600091825260209091206003600690920201015460ff1660028111156115e8576115e8611cc1565b146116355760405162461bcd60e51b815260206004820152601360248201527f4368616e6e656c206973206e6f74206f70656e00000000000000000000000000604482015260640161049c565b83336001600160a01b031660048267ffffffffffffffff168154811061165d5761165d611d3a565b60009182526020909120600690910201546001600160a01b0316146116c45760405162461bcd60e51b815260206004820152601e60248201527f596f7520617265206e6f7420746865206368616e6e656c2073656e6465720000604482015260640161049c565b33600090815260208190526040902054808511156117385760405162461bcd60e51b815260206004820152602b60248201527f796f7520646f206e6f742068617665207468652062616c616e636520746f206660448201526a1d5b990818da185b9b995b60aa1b606482015260840161049c565b33600090815260208190526040902085820390556004805486919067ffffffffffffffff891690811061176d5761176d611d3a565b6000918252602091829020600260069092020101805490920190915560405186815267ffffffffffffffff8816917fa5915433a96000c5e16c635b6acf2e0f8efc24639924f87e8925edeae086edc9910160405180910390a250600195945050505050565b6001546040517f23b872dd00000000000000000000000000000000000000000000000000000000815233600482018190523060248301526044820184905260009290916001600160a01b03909116906323b872dd906064016020604051808303816000875af1158015611849573d6000803e3d6000fd5b505050506040513d601f19601f8201168201806040525081019061186d9190611db4565b61187657600080fd5b6001600160a01b0381166000908152602081905260408120805485929061189e908490611d8e565b909155505060408051600081526001600160a01b03831660208201529081018490527fddf252ad1be2c89b69c2b068fc378daa952ba7f163c4a11628f55a4df523b3ef9060600160405180910390a150600192915050565b6001600160a01b03811660009081526006602090815260409182902080548351818402810184019094528084526060939283018282801561088b576000918252602091829020805467ffffffffffffffff168452908202830192909160089101808411610846575094979650505050505050565b6004818154811061197a57600080fd5b60009182526020918290206006909102018054600182015460028301546003840154604080519687019052600485015486526005909401546001600160a01b0393841696509190921693919260ff16919067ffffffffffffffff1686565b80356001600160a01b03811681146119ef57600080fd5b919050565b60008060408385031215611a0757600080fd5b611a10836119d8565b946020939093013593505050565b600060208284031215611a3057600080fd5b611a39826119d8565b9392505050565b6020808252825182820181905260009190848201906040850190845b81811015611a8257835167ffffffffffffffff1683529284019291840191600101611a5c565b50909695505050505050565b803567ffffffffffffffff811681146119ef57600080fd5b600060208284031215611ab857600080fd5b611a3982611a8e565b634e487b7160e01b600052604160045260246000fd5b600082601f830112611ae857600080fd5b813567ffffffffffffffff80821115611b0357611b03611ac1565b604051601f8301601f19908116603f01168101908282118183101715611b2b57611b2b611ac1565b81604052838152866020858801011115611b4457600080fd5b836020870160208301376000602085830101528094505050505092915050565b60008060008060808587031215611b7a57600080fd5b611b8385611a8e565b935060208501359250611b9860408601611a8e565b9150606085013567ffffffffffffffff811115611bb457600080fd5b611bc087828801611ad7565b91505092959194509250565b600060208284031215611bde57600080fd5b5035919050565b60008060408385031215611bf857600080fd5b82359150602083013567ffffffffffffffff811115611c1657600080fd5b611c2285828601611ad7565b9150509250929050565b600060208284031215611c3e57600080fd5b813567ffffffffffffffff811115611c5557600080fd5b611c6184828501611ad7565b949350505050565b60008060408385031215611c7c57600080fd5b611a1083611a8e565b600080600060608486031215611c9a57600080fd5b611ca384611a8e565b925060208401359150611cb860408501611a8e565b90509250925092565b634e487b7160e01b600052602160045260246000fd5b6001600160a01b038781168252861660208201526040810185905260c0810160038510611d1457634e487b7160e01b600052602160045260246000fd5b60608201949094529151608083015267ffffffffffffffff1660a0909101529392505050565b634e487b7160e01b600052603260045260246000fd5b634e487b7160e01b600052601160045260246000fd5b67ffffffffffffffff818116838216019080821115611d8757611d87611d50565b5092915050565b808201808211156107f1576107f1611d50565b818103818111156107f1576107f1611d50565b600060208284031215611dc657600080fd5b81518015158114611a3957600080fdfea2646970667358221220ab0a7b7fcb2698354851d0dc3de1805363a2ea69d016ac727ca0013528b3635464736f6c63430008110033",
  "linkReferences": {},
  "deployedLinkReferences": {}
}