{
  "_format": "hh-sol-artifact-1",
  "contractName": "Channel",
  "sourceName": "contracts/channel.sol",
  "abi": [
    {
      "inputs": [
        {
          "internalType": "string",
          "name": "name",
          "type": "string"
        },
        {
          "internalType": "address",
          "name": "_token",
          "type": "address"
        }
      ],
      "stateMutability": "nonpayable",
      "type": "constructor"
    },
    {
      "anonymous": false,
      "inputs": [
        {
          "indexed": true,
          "internalType": "address",
          "name": "from",
          "type": "address"
        },
        {
          "indexed": true,
          "internalType": "address",
          "name": "to",
          "type": "address"
        },
        {
          "indexed": false,
          "internalType": "uint256",
          "name": "amount",
          "type": "uint256"
        }
      ],
      "name": "Defund",
      "type": "event"
    },
    {
      "anonymous": false,
      "inputs": [
        {
          "indexed": true,
          "internalType": "address",
          "name": "from",
          "type": "address"
        },
        {
          "indexed": true,
          "internalType": "address",
          "name": "to",
          "type": "address"
        },
        {
          "indexed": false,
          "internalType": "uint256",
          "name": "amount",
          "type": "uint256"
        }
      ],
      "name": "Fund",
      "type": "event"
    },
    {
      "anonymous": false,
      "inputs": [
        {
          "indexed": true,
          "internalType": "address",
          "name": "from",
          "type": "address"
        },
        {
          "indexed": true,
          "internalType": "address",
          "name": "to",
          "type": "address"
        },
        {
          "indexed": false,
          "internalType": "uint64",
          "name": "time",
          "type": "uint64"
        }
      ],
      "name": "Lock",
      "type": "event"
    },
    {
      "anonymous": false,
      "inputs": [
        {
          "indexed": true,
          "internalType": "bytes32",
          "name": "role",
          "type": "bytes32"
        },
        {
          "indexed": true,
          "internalType": "bytes32",
          "name": "previousAdminRole",
          "type": "bytes32"
        },
        {
          "indexed": true,
          "internalType": "bytes32",
          "name": "newAdminRole",
          "type": "bytes32"
        }
      ],
      "name": "RoleAdminChanged",
      "type": "event"
    },
    {
      "anonymous": false,
      "inputs": [
        {
          "indexed": true,
          "internalType": "bytes32",
          "name": "role",
          "type": "bytes32"
        },
        {
          "indexed": true,
          "internalType": "address",
          "name": "account",
          "type": "address"
        },
        {
          "indexed": true,
          "internalType": "address",
          "name": "sender",
          "type": "address"
        }
      ],
      "name": "RoleGranted",
      "type": "event"
    },
    {
      "anonymous": false,
      "inputs": [
        {
          "indexed": true,
          "internalType": "bytes32",
          "name": "role",
          "type": "bytes32"
        },
        {
          "indexed": true,
          "internalType": "address",
          "name": "account",
          "type": "address"
        },
        {
          "indexed": true,
          "internalType": "address",
          "name": "sender",
          "type": "address"
        }
      ],
      "name": "RoleRevoked",
      "type": "event"
    },
    {
      "anonymous": false,
      "inputs": [
        {
          "indexed": false,
          "internalType": "address",
          "name": "from",
          "type": "address"
        },
        {
          "indexed": false,
          "internalType": "address",
          "name": "to",
          "type": "address"
        },
        {
          "indexed": false,
          "internalType": "uint256",
          "name": "amount",
          "type": "uint256"
        }
      ],
      "name": "Transfer",
      "type": "event"
    },
    {
      "inputs": [],
      "name": "DEFAULT_ADMIN_ROLE",
      "outputs": [
        {
          "internalType": "bytes32",
          "name": "",
          "type": "bytes32"
        }
      ],
      "stateMutability": "view",
      "type": "function"
    },
    {
      "inputs": [
        {
          "components": [
            {
              "internalType": "string",
              "name": "name",
              "type": "string"
            },
            {
              "internalType": "string",
              "name": "version",
              "type": "string"
            },
            {
              "internalType": "uint256",
              "name": "chainId",
              "type": "uint256"
            },
            {
              "internalType": "address",
              "name": "verifyingContract",
              "type": "address"
            }
          ],
          "internalType": "struct EIP712Domain",
          "name": "_input",
          "type": "tuple"
        }
      ],
      "name": "GET_EIP712DOMAIN_PACKETHASH",
      "outputs": [
        {
          "internalType": "bytes32",
          "name": "",
          "type": "bytes32"
        }
      ],
      "stateMutability": "pure",
      "type": "function"
    },
    {
      "inputs": [
        {
          "components": [
            {
              "components": [
                {
                  "internalType": "address",
                  "name": "to",
                  "type": "address"
                },
                {
                  "internalType": "uint256",
                  "name": "total",
                  "type": "uint256"
                },
                {
                  "internalType": "uint256",
                  "name": "round",
                  "type": "uint256"
                }
              ],
              "internalType": "struct Transaction",
              "name": "transaction",
              "type": "tuple"
            },
            {
              "internalType": "bytes",
              "name": "signature",
              "type": "bytes"
            }
          ],
          "internalType": "struct SignedTransaction",
          "name": "_input",
          "type": "tuple"
        }
      ],
      "name": "GET_SIGNEDTRANSACTION_PACKETHASH",
      "outputs": [
        {
          "internalType": "bytes32",
          "name": "",
          "type": "bytes32"
        }
      ],
      "stateMutability": "pure",
      "type": "function"
    },
    {
      "inputs": [
        {
          "components": [
            {
              "internalType": "address",
              "name": "to",
              "type": "address"
            },
            {
              "internalType": "uint256",
              "name": "total",
              "type": "uint256"
            },
            {
              "internalType": "uint256",
              "name": "round",
              "type": "uint256"
            }
          ],
          "internalType": "struct Transaction",
          "name": "_input",
          "type": "tuple"
        }
      ],
      "name": "GET_TRANSACTION_PACKETHASH",
      "outputs": [
        {
          "internalType": "bytes32",
          "name": "",
          "type": "bytes32"
        }
      ],
      "stateMutability": "pure",
      "type": "function"
    },
    {
      "inputs": [
        {
          "internalType": "address",
          "name": "reciver",
          "type": "address"
        },
        {
          "internalType": "uint256",
          "name": "amount",
          "type": "uint256"
        },
        {
          "internalType": "uint256",
          "name": "round",
          "type": "uint256"
        }
      ],
      "name": "_hash",
      "outputs": [
        {
          "internalType": "bytes32",
          "name": "",
          "type": "bytes32"
        }
      ],
      "stateMutability": "view",
      "type": "function"
    },
    {
      "inputs": [
        {
          "internalType": "address",
          "name": "sender",
          "type": "address"
        },
        {
          "internalType": "bytes32",
          "name": "digest",
          "type": "bytes32"
        },
        {
          "internalType": "bytes",
          "name": "signature",
          "type": "bytes"
        }
      ],
      "name": "_verify",
      "outputs": [
        {
          "internalType": "bool",
          "name": "",
          "type": "bool"
        }
      ],
      "stateMutability": "view",
      "type": "function"
    },
    {
      "inputs": [
        {
          "internalType": "uint256",
          "name": "amount",
          "type": "uint256"
        }
      ],
      "name": "airdrop",
      "outputs": [
        {
          "internalType": "uint256",
          "name": "",
          "type": "uint256"
        }
      ],
      "stateMutability": "nonpayable",
      "type": "function"
    },
    {
      "inputs": [
        {
          "internalType": "address",
          "name": "account",
          "type": "address"
        }
      ],
      "name": "balanceOf",
      "outputs": [
        {
          "internalType": "uint256",
          "name": "",
          "type": "uint256"
        }
      ],
      "stateMutability": "view",
      "type": "function"
    },
    {
      "inputs": [],
      "name": "decimals",
      "outputs": [
        {
          "internalType": "uint8",
          "name": "",
          "type": "uint8"
        }
      ],
      "stateMutability": "view",
      "type": "function"
    },
    {
      "inputs": [
        {
          "internalType": "uint256",
          "name": "amount",
          "type": "uint256"
        }
      ],
      "name": "deposit",
      "outputs": [
        {
          "internalType": "bool",
          "name": "",
          "type": "bool"
        }
      ],
      "stateMutability": "nonpayable",
      "type": "function"
    },
    {
      "inputs": [],
      "name": "domainHash",
      "outputs": [
        {
          "internalType": "bytes32",
          "name": "",
          "type": "bytes32"
        }
      ],
      "stateMutability": "view",
      "type": "function"
    },
    {
      "inputs": [
        {
          "internalType": "address",
          "name": "from",
          "type": "address"
        },
        {
          "internalType": "address",
          "name": "to",
          "type": "address"
        }
      ],
      "name": "getChannelByAddresses",
      "outputs": [
        {
          "components": [
            {
              "internalType": "uint256",
              "name": "value",
              "type": "uint256"
            },
            {
              "internalType": "enum Channel.State",
              "name": "state",
              "type": "uint8"
            },
            {
              "components": [
                {
                  "internalType": "uint256",
                  "name": "_value",
                  "type": "uint256"
                }
              ],
              "internalType": "struct Counters.Counter",
              "name": "round",
              "type": "tuple"
            },
            {
              "internalType": "uint64",
              "name": "lockTime",
              "type": "uint64"
            }
          ],
          "internalType": "struct Channel.ChannelState",
          "name": "",
          "type": "tuple"
        }
      ],
      "stateMutability": "view",
      "type": "function"
    },
    {
      "inputs": [
        {
          "internalType": "address",
          "name": "sender",
          "type": "address"
        }
      ],
      "name": "getChannelReciversBySender",
      "outputs": [
        {
          "internalType": "address[]",
          "name": "",
          "type": "address[]"
        }
      ],
      "stateMutability": "view",
      "type": "function"
    },
    {
      "inputs": [
        {
          "internalType": "address",
          "name": "reciver",
          "type": "address"
        }
      ],
      "name": "getChannelSendersByReciver",
      "outputs": [
        {
          "internalType": "address[]",
          "name": "",
          "type": "address[]"
        }
      ],
      "stateMutability": "view",
      "type": "function"
    },
    {
      "inputs": [
        {
          "internalType": "string",
          "name": "contractName",
          "type": "string"
        },
        {
          "internalType": "string",
          "name": "version",
          "type": "string"
        },
        {
          "internalType": "uint256",
          "name": "chainId",
          "type": "uint256"
        },
        {
          "internalType": "address",
          "name": "verifyingContract",
          "type": "address"
        }
      ],
      "name": "getEIP712DomainHash",
      "outputs": [
        {
          "internalType": "bytes32",
          "name": "",
          "type": "bytes32"
        }
      ],
      "stateMutability": "pure",
      "type": "function"
    },
    {
      "inputs": [
        {
          "internalType": "bytes32",
          "name": "_messageHash",
          "type": "bytes32"
        }
      ],
      "name": "getEthSignedMessageHash",
      "outputs": [
        {
          "internalType": "bytes32",
          "name": "",
          "type": "bytes32"
        }
      ],
      "stateMutability": "pure",
      "type": "function"
    },
    {
      "inputs": [
        {
          "internalType": "address",
          "name": "reciver",
          "type": "address"
        },
        {
          "internalType": "uint256",
          "name": "amount",
          "type": "uint256"
        },
        {
          "internalType": "uint256",
          "name": "round",
          "type": "uint256"
        }
      ],
      "name": "getMessageHash",
      "outputs": [
        {
          "internalType": "bytes32",
          "name": "",
          "type": "bytes32"
        }
      ],
      "stateMutability": "pure",
      "type": "function"
    },
    {
      "inputs": [
        {
          "internalType": "bytes32",
          "name": "role",
          "type": "bytes32"
        }
      ],
      "name": "getRoleAdmin",
      "outputs": [
        {
          "internalType": "bytes32",
          "name": "",
          "type": "bytes32"
        }
      ],
      "stateMutability": "view",
      "type": "function"
    },
    {
      "inputs": [
        {
          "components": [
            {
              "internalType": "address",
              "name": "to",
              "type": "address"
            },
            {
              "internalType": "uint256",
              "name": "total",
              "type": "uint256"
            },
            {
              "internalType": "uint256",
              "name": "round",
              "type": "uint256"
            }
          ],
          "internalType": "struct Transaction",
          "name": "transaction",
          "type": "tuple"
        }
      ],
      "name": "getTransactionTypedDataHash",
      "outputs": [
        {
          "internalType": "bytes32",
          "name": "",
          "type": "bytes32"
        }
      ],
      "stateMutability": "view",
      "type": "function"
    },
    {
      "inputs": [
        {
          "internalType": "bytes32",
          "name": "role",
          "type": "bytes32"
        },
        {
          "internalType": "address",
          "name": "account",
          "type": "address"
        }
      ],
      "name": "grantRole",
      "outputs": [],
      "stateMutability": "nonpayable",
      "type": "function"
    },
    {
      "inputs": [
        {
          "internalType": "bytes32",
          "name": "role",
          "type": "bytes32"
        },
        {
          "internalType": "address",
          "name": "account",
          "type": "address"
        }
      ],
      "name": "hasRole",
      "outputs": [
        {
          "internalType": "bool",
          "name": "",
          "type": "bool"
        }
      ],
      "stateMutability": "view",
      "type": "function"
    },
    {
      "inputs": [
        {
          "internalType": "address",
          "name": "to",
          "type": "address"
        },
        {
          "internalType": "uint256",
          "name": "value",
          "type": "uint256"
        }
      ],
      "name": "open",
      "outputs": [],
      "stateMutability": "nonpayable",
      "type": "function"
    },
    {
      "inputs": [
        {
          "internalType": "address",
          "name": "from",
          "type": "address"
        },
        {
          "internalType": "uint256",
          "name": "amount",
          "type": "uint256"
        },
        {
          "internalType": "uint256",
          "name": "round",
          "type": "uint256"
        },
        {
          "internalType": "bytes",
          "name": "sig",
          "type": "bytes"
        }
      ],
      "name": "reciverCollectPayment",
      "outputs": [],
      "stateMutability": "nonpayable",
      "type": "function"
    },
    {
      "inputs": [
        {
          "internalType": "bytes32",
          "name": "_ethSignedMessageHash",
          "type": "bytes32"
        },
        {
          "internalType": "bytes",
          "name": "_signature",
          "type": "bytes"
        }
      ],
      "name": "recoverSigner",
      "outputs": [
        {
          "internalType": "address",
          "name": "",
          "type": "address"
        }
      ],
      "stateMutability": "pure",
      "type": "function"
    },
    {
      "inputs": [
        {
          "internalType": "bytes32",
          "name": "role",
          "type": "bytes32"
        },
        {
          "internalType": "address",
          "name": "account",
          "type": "address"
        }
      ],
      "name": "renounceRole",
      "outputs": [],
      "stateMutability": "nonpayable",
      "type": "function"
    },
    {
      "inputs": [
        {
          "internalType": "bytes32",
          "name": "role",
          "type": "bytes32"
        },
        {
          "internalType": "address",
          "name": "account",
          "type": "address"
        }
      ],
      "name": "revokeRole",
      "outputs": [],
      "stateMutability": "nonpayable",
      "type": "function"
    },
    {
      "inputs": [
        {
          "internalType": "address",
          "name": "to",
          "type": "address"
        }
      ],
      "name": "senderLock",
      "outputs": [],
      "stateMutability": "nonpayable",
      "type": "function"
    },
    {
      "inputs": [
        {
          "internalType": "address",
          "name": "to",
          "type": "address"
        }
      ],
      "name": "senderWithdrawal",
      "outputs": [],
      "stateMutability": "nonpayable",
      "type": "function"
    },
    {
      "inputs": [
        {
          "internalType": "bytes",
          "name": "sig",
          "type": "bytes"
        }
      ],
      "name": "splitSignature",
      "outputs": [
        {
          "internalType": "bytes32",
          "name": "r",
          "type": "bytes32"
        },
        {
          "internalType": "bytes32",
          "name": "s",
          "type": "bytes32"
        },
        {
          "internalType": "uint8",
          "name": "v",
          "type": "uint8"
        }
      ],
      "stateMutability": "pure",
      "type": "function"
    },
    {
      "inputs": [
        {
          "internalType": "bytes4",
          "name": "interfaceId",
          "type": "bytes4"
        }
      ],
      "name": "supportsInterface",
      "outputs": [
        {
          "internalType": "bool",
          "name": "",
          "type": "bool"
        }
      ],
      "stateMutability": "view",
      "type": "function"
    },
    {
      "inputs": [],
      "name": "token",
      "outputs": [
        {
          "internalType": "contract IERC20",
          "name": "",
          "type": "address"
        }
      ],
      "stateMutability": "view",
      "type": "function"
    },
    {
      "inputs": [
        {
          "internalType": "address",
          "name": "to",
          "type": "address"
        },
        {
          "internalType": "uint256",
          "name": "amount",
          "type": "uint256"
        }
      ],
      "name": "transfer",
      "outputs": [
        {
          "internalType": "bool",
          "name": "",
          "type": "bool"
        }
      ],
      "stateMutability": "nonpayable",
      "type": "function"
    },
    {
      "inputs": [
        {
          "internalType": "address",
          "name": "sender",
          "type": "address"
        },
        {
          "internalType": "address",
          "name": "reciver",
          "type": "address"
        },
        {
          "internalType": "uint256",
          "name": "amount",
          "type": "uint256"
        },
        {
          "internalType": "uint256",
          "name": "round",
          "type": "uint256"
        },
        {
          "internalType": "bytes",
          "name": "signature",
          "type": "bytes"
        }
      ],
      "name": "verify",
      "outputs": [
        {
          "internalType": "bool",
          "name": "",
          "type": "bool"
        }
      ],
      "stateMutability": "view",
      "type": "function"
    },
    {
      "inputs": [
        {
          "components": [
            {
              "components": [
                {
                  "internalType": "address",
                  "name": "to",
                  "type": "address"
                },
                {
                  "internalType": "uint256",
                  "name": "total",
                  "type": "uint256"
                },
                {
                  "internalType": "uint256",
                  "name": "round",
                  "type": "uint256"
                }
              ],
              "internalType": "struct Transaction",
              "name": "transaction",
              "type": "tuple"
            },
            {
              "internalType": "bytes",
              "name": "signature",
              "type": "bytes"
            }
          ],
          "internalType": "struct SignedTransaction",
          "name": "signedTransaction",
          "type": "tuple"
        }
      ],
      "name": "verifySignedTransaction",
      "outputs": [
        {
          "internalType": "address",
          "name": "",
          "type": "address"
        }
      ],
      "stateMutability": "view",
      "type": "function"
    },
    {
      "inputs": [
        {
          "internalType": "uint256",
          "name": "amount",
          "type": "uint256"
        }
      ],
      "name": "withdrawal",
      "outputs": [
        {
          "internalType": "bool",
          "name": "",
          "type": "bool"
        }
      ],
      "stateMutability": "nonpayable",
      "type": "function"
    }
  ],
  "bytecode": "0x61016060405260028054600160a01b600160e81b0319167c12000000000001518000000000000000000000000000000000000000001790553480156200004457600080fd5b5060405162002e8038038062002e808339810160408190526200006791620002c2565b60408051808201825260018152600d60fa1b60209182015283518482012060e08190527f13600b294191fc92924bb3ce4b969c1e7e2bab8f4c93c3fc6d0a51733df3c0606101008190524660a0818152855160008051602062002e60833981519152818701819052818801959095526060810193909352608080840192909252308382018190528651808503909201825260c0938401909652805194019390932090925291905261012052600280546001600160a01b0319166001600160a01b0383161790556200013a60003362000174565b6200016782604051806040016040528060018152602001600d60fa1b81525046306200018460201b60201c565b6101405250620003aa9050565b620001808282620001ef565b5050565b83516020948501208351938501939093206040805160008051602062002e608339815191528188015280820195909552606085019190915260808401929092526001600160a01b031660a0808401919091528151808403909101815260c09092019052805191012090565b6000828152602081815260408083206001600160a01b038516845290915290205460ff1662000180576000828152602081815260408083206001600160a01b03851684529091529020805460ff191660011790556200024b3390565b6001600160a01b0316816001600160a01b0316837f2f8788117e7eff1d82e926ec794901d17c78024a50270940304540a733656f0d60405160405180910390a45050565b634e487b7160e01b600052604160045260246000fd5b80516001600160a01b0381168114620002bd57600080fd5b919050565b60008060408385031215620002d657600080fd5b82516001600160401b0380821115620002ee57600080fd5b818501915085601f8301126200030357600080fd5b8151818111156200031857620003186200028f565b604051601f8201601f19908116603f011681019083821181831017156200034357620003436200028f565b816040528281526020935088848487010111156200036057600080fd5b600091505b8282101562000384578482018401518183018501529083019062000365565b60008484830101528096505050506200039f818601620002a5565b925050509250929050565b60805160a05160c05160e051610100516101205161014051612a546200040c600039600081816105dc0152610b5001526000611d5301526000611d9501526000611d7401526000611cd801526000611d0201526000611d2c0152612a546000f3fe608060405234801561001057600080fd5b50600436106102415760003560e01c806391d1485411610145578063cffc18eb116100bd578063dfe86ac51161008c578063e87d4d1711610071578063e87d4d1714610611578063fa54080114610624578063fc0c546a1461068557600080fd5b8063dfe86ac5146105d7578063e02befae146105fe57600080fd5b8063cffc18eb14610514578063d2b0737b14610527578063d327c1eb1461053a578063d547741f146105c457600080fd5b8063a217fddf11610114578063a9059cbb116100f9578063a9059cbb146104db578063ae8cd9d1146104ee578063b6b55f251461050157600080fd5b8063a217fddf146104a2578063a7bb5803146104aa57600080fd5b806391d148541461043257806397aba7f91461046957806397dc4a131461047c57806398bc186a1461048f57600080fd5b806336568abe116101d857806367d0e505116101a757806370a082311161018c57806370a08231146103d65780637f968ac7146103ff578063835fc6ca1461041f57600080fd5b806367d0e505146103b057806369914324146103c357600080fd5b806336568abe1461034c5780634cc3bf6f1461035f57806359b84a5d146103725780635c0b5ec41461038557600080fd5b8063248a9ca311610214578063248a9ca3146102b65780632f2ff15d146102e7578063313ce567146102fa578063346be4a71461033957600080fd5b806301ffc9a7146102465780630a0e5c9d1461026e5780631360569d1461028357806317df34f114610296575b600080fd5b610259610254366004612126565b610698565b60405190151581526020015b60405180910390f35b61028161027c36600461216c565b610701565b005b610281610291366004612196565b61098b565b6102a96102a4366004612196565b610aab565b60405161026591906121b1565b6102d96102c43660046121fe565b60009081526020819052604090206001015490565b604051908152602001610265565b6102816102f5366004612217565b610b21565b600254610327907c0100000000000000000000000000000000000000000000000000000000900460ff1681565b60405160ff9091168152602001610265565b6102d96103473660046122e3565b610b4b565b61028161035a366004612217565b610bb6565b61028161036d366004612196565b610c42565b6102d96103803660046122e3565b610df3565b61039861039336600461238c565b610e58565b6040516001600160a01b039091168152602001610265565b6102a96103be366004612196565b610e82565b6102d96103d136600461238c565b610ef6565b6102d96103e4366004612196565b6001600160a01b031660009081526001602052604090205490565b61041261040d366004612421565b610f53565b6040516102659190612461565b61025961042d3660046121fe565b610ff0565b610259610440366004612217565b6000918252602082815260408084206001600160a01b0393909316845291905290205460ff1690565b6103986104773660046124b9565b61110c565b6102d961048a3660046121fe565b61118b565b6102d961049d366004612500565b6111c7565b6102d9600081565b6104bd6104b83660046125ac565b611213565b60408051938452602084019290925260ff1690820152606001610265565b6102596104e936600461216c565b611287565b6102816104fc3660046125e1565b61147f565b61025961050f3660046121fe565b61163c565b610259610522366004612642565b611760565b6102d96105353660046126b4565b6117bd565b6102d96105483660046126e7565b8351602094850120835193850193909320604080517f8b73c3c69bb8fe3d512ecc4cf759cc79239f7b179b0ffacaa9a75d522b39400f8188015280820195909552606085019190915260808401929092526001600160a01b031660a0808401919091528151808403909101815260c09092019052805191012090565b6102816105d2366004612217565b61180e565b6102d97f000000000000000000000000000000000000000000000000000000000000000081565b6102d961060c3660046126b4565b611833565b61025961061f366004612765565b61188c565b6102d96106323660046121fe565b6040517f19457468657265756d205369676e6564204d6573736167653a0a3332000000006020820152603c8101829052600090605c01604051602081830303815290604052805190602001209050919050565b600254610398906001600160a01b031681565b60006001600160e01b031982167f7965db0b0000000000000000000000000000000000000000000000000000000014806106fb57507f01ffc9a7000000000000000000000000000000000000000000000000000000006001600160e01b03198316145b92915050565b336000908152600160205260409020548082111561078c5760405162461bcd60e51b815260206004820152602b60248201527f796f7520646f206e6f742068617665207468652062616c616e636520746f206660448201527f756e64206368616e6e656c00000000000000000000000000000000000000000060648201526084015b60405180910390fd5b61079682826127d2565b33600090815260016020818152604080842094909455600381528383206001600160a01b038816845290529181209091015460ff1660028111156107dc576107dc61244b565b0361090d57604080516020808201835260008083528351608081018552868152600181840181815282870186905260608301849052338452600385528684206001600160a01b038b168552909452949091208151815591518285018054949592949192909160ff1916908360028111156108585761085861244b565b02179055506040828101515160028301556060909201516003909101805467ffffffffffffffff191667ffffffffffffffff909216919091179055336000818152600460209081528382208054600181810183559184528284200180547fffffffffffffffffffffffff00000000000000000000000000000000000000009081166001600160a01b038c1690811790925590845260058352948320805491820181558352912001805490921617905550610946565b3360009081526003602090815260408083206001600160a01b0387168452909152812080548492906109409084906127e5565b90915550505b6040518281526001600160a01b0384169033907f2d48ac6acd9c250f93c75e6a8dd61f6f1c062b7f83c1f604cf41a3352df683fc9060200160405180910390a3505050565b338160016001600160a01b0380841660009081526003602090815260408083209386168352929052206001015460ff1660028111156109cc576109cc61244b565b14610a195760405162461bcd60e51b815260206004820152601360248201527f4368616e6e656c206973206e6f74206f70656e000000000000000000000000006044820152606401610783565b3360008181526003602081815260408084206001600160a01b03891680865290835293819020600181018054600260ff19909116179055909201805467ffffffffffffffff19164267ffffffffffffffff8116918217909255835190815292519094927ffc045bfcf0d75e572946e42f3b53bac7ec2a832f291f8cce267876742d820ebd92908290030190a350505050565b6001600160a01b038116600090815260056020908152604091829020805483518184028101840190945280845260609392830182828015610b1557602002820191906000526020600020905b81546001600160a01b03168152600190910190602001808311610af7575b50505050509050919050565b600082815260208190526040902060010154610b3c81611899565b610b4683836118a6565b505050565b6000807f0000000000000000000000000000000000000000000000000000000000000000610b7884610df3565b60405161190160f01b6020820152602281019290925260428201526062015b60408051601f1981840301815291905280516020909101209392505050565b6001600160a01b0381163314610c345760405162461bcd60e51b815260206004820152602f60248201527f416363657373436f6e74726f6c3a2063616e206f6e6c792072656e6f756e636560448201527f20726f6c657320666f722073656c6600000000000000000000000000000000006064820152608401610783565b610c3e8282611944565b5050565b3360008181526003602090815260408083206001600160a01b0386168452909152902060010154829060029060ff1681811115610c8157610c8161244b565b14610cce5760405162461bcd60e51b815260206004820152601560248201527f4368616e6e656c206973206e6f74206c6f636b656400000000000000000000006044820152606401610783565b3360009081526003602081815260408084206001600160a01b0388168552909152909120015460025467ffffffffffffffff91821691610d279174010000000000000000000000000000000000000000900416826127f8565b67ffffffffffffffff164210610d3c57600080fd5b3360008181526003602090815260408083206001600160a01b03891684528252808320805490849055938352600190915281208054839290610d7f9084906127e5565b90915550503360008181526003602090815260408083206001600160a01b038a16808552908352928190206001908101805460ff19169091179055518481529192917f3bb082152a6aeca4accd7a549583361cf3387c060a33681f9bc6f22fa6333f8c910160405180910390a35050505050565b6000807fffb4059c2d77d1a3df5d17fa1927731e28d6b4271533f6090daf3ee82973c9a4836000015184602001518560400151604051602001610b9794939291909384526001600160a01b039290921660208401526040830152606082015260800190565b805160009081610e6782610b4b565b90506000610e798286602001516119c3565b95945050505050565b6001600160a01b038116600090815260046020908152604091829020805483518184028101840190945280845260609392830182828015610b15576020028201919060005260206000209081546001600160a01b03168152600190910190602001808311610af75750505050509050919050565b6000807fe5250757dab087c5356b11360acd2c2fd3fe0e822624dfe55bc5ce6ceede44d4610f278460000151610df3565b602080860151805190820120604051610b97949392019283526020830191909152604082015260600190565b610f5b6120e9565b6001600160a01b038084166000908152600360209081526040808320938616835292815290829020825160808101909352805483526001810154909183019060ff166002811115610fae57610fae61244b565b6002811115610fbf57610fbf61244b565b815260408051602080820183526002850154825283015260039092015467ffffffffffffffff169101529392505050565b336000818152600160205260408120549091908084111561101057600080fd5b6001600160a01b0382811660008181526001602052604090819020878503905560025490517fa9059cbb0000000000000000000000000000000000000000000000000000000081526004810192909252602482018790529091169063a9059cbb906044016020604051808303816000875af1158015611093573d6000803e3d6000fd5b505050506040513d601f19601f820116820180604052508101906110b79190612820565b50604080516001600160a01b0384168152600060208201529081018590527fddf252ad1be2c89b69c2b068fc378daa952ba7f163c4a11628f55a4df523b3ef9060600160405180910390a15060019392505050565b60008060008061111b85611213565b6040805160008152602081018083528b905260ff8316918101919091526060810184905260808101839052929550909350915060019060a0016020604051602081039080840390855afa158015611176573d6000803e3d6000fd5b5050604051601f190151979650505050505050565b336000908152600160205260408120805483919083906111ac9084906127e5565b90915550503360009081526001602052604090205492915050565b6000807f8b73c3c69bb8fe3d512ecc4cf759cc79239f7b179b0ffacaa9a75d522b39400f8360000151846020015185604001518660600151604051602001610b97959493929190612892565b600080600083516041146112695760405162461bcd60e51b815260206004820152601860248201527f696e76616c6964207369676e6174757265206c656e67746800000000000000006044820152606401610783565b50505060208101516040820151606090920151909260009190911a90565b600033806112fd5760405162461bcd60e51b815260206004820152602560248201527f45524332303a207472616e736665722066726f6d20746865207a65726f20616460448201527f64726573730000000000000000000000000000000000000000000000000000006064820152608401610783565b6001600160a01b0384166113795760405162461bcd60e51b815260206004820152602360248201527f45524332303a207472616e7366657220746f20746865207a65726f206164647260448201527f65737300000000000000000000000000000000000000000000000000000000006064820152608401610783565b6001600160a01b038116600090815260016020526040902054838110156114085760405162461bcd60e51b815260206004820152602660248201527f45524332303a207472616e7366657220616d6f756e742065786365656473206260448201527f616c616e636500000000000000000000000000000000000000000000000000006064820152608401610783565b6001600160a01b03828116600081815260016020908152604080832089870390559389168083529184902080548901905583519283528201529081018590527fddf252ad1be2c89b69c2b068fc378daa952ba7f163c4a11628f55a4df523b3ef9060600160405180910390a1506001949350505050565b6001600160a01b038416600090815260036020908152604080832033845290915290206002015482146114b157600080fd5b6001600160a01b03841660009081526003602090815260408083203384529091529020548311156114e157600080fd5b60006114ee3385856117bd565b90506000611549826040517f19457468657265756d205369676e6564204d6573736167653a0a3332000000006020820152603c8101829052600090605c01604051602081830303815290604052805190602001209050919050565b9050856001600160a01b031661155f828561110c565b6001600160a01b03161461157257600080fd5b6001600160a01b0386166000908152600360209081526040808320338452909152812080548792906115a59084906127d2565b90915550506001600160a01b0386166000908152600360209081526040808320338452825280832060020180546001908101909155909152812080548792906115ef9084906127e5565b909155505060405185815233906001600160a01b038816907f3bb082152a6aeca4accd7a549583361cf3387c060a33681f9bc6f22fa6333f8c9060200160405180910390a3505050505050565b6002546040517f23b872dd00000000000000000000000000000000000000000000000000000000815233600482018190523060248301526044820184905260009290916001600160a01b03909116906323b872dd906064016020604051808303816000875af11580156116b3573d6000803e3d6000fd5b505050506040513d601f19601f820116820180604052508101906116d79190612820565b6116e057600080fd5b6001600160a01b038116600090815260016020526040812080548592906117089084906127e5565b909155505060408051600081526001600160a01b03831660208201529081018490527fddf252ad1be2c89b69c2b068fc378daa952ba7f163c4a11628f55a4df523b3ef9060600160405180910390a150600192915050565b6000806117a3604051806040016040528060405180606001604052808a6001600160a01b0316815260200189815260200188815250815260200185815250610e58565b6001600160a01b0388811691161491505095945050505050565b6040516bffffffffffffffffffffffff19606085901b16602082015260348101839052605481018290526000906074015b6040516020818303038152906040528051906020012090505b9392505050565b60008281526020819052604090206001015461182981611899565b610b468383611944565b604080516001600160a01b0385166020820152908101839052606081018290524660808201523060a08201526000906118849060c00160405160208183030381529060405280519060200120611a9a565b949350505050565b6000611884848484611ae8565b6118a38133611c58565b50565b6000828152602081815260408083206001600160a01b038516845290915290205460ff16610c3e576000828152602081815260408083206001600160a01b03851684529091529020805460ff191660011790556119003390565b6001600160a01b0316816001600160a01b0316837f2f8788117e7eff1d82e926ec794901d17c78024a50270940304540a733656f0d60405160405180910390a45050565b6000828152602081815260408083206001600160a01b038516845290915290205460ff1615610c3e576000828152602081815260408083206001600160a01b0385168085529252808320805460ff1916905551339285917ff6391f5c32d9c69d2a47ea670b442974b53935d1edc7fd64eb21e047a839171b9190a45050565b60008060008084516041146119de57600093505050506106fb565b50505060208201516040830151606084015160001a601b811015611a0a57611a07601b826128df565b90505b8060ff16601b14158015611a2257508060ff16601c14155b15611a3357600093505050506106fb565b60408051600081526020810180835288905260ff831691810191909152606081018490526080810183905260019060a0016020604051602081039080840390855afa158015611a86573d6000803e3d6000fd5b5050506020604051035193505050506106fb565b60006106fb611aa7611ccb565b8360405161190160f01b6020820152602281018390526042810182905260009060620160405160208183030381529060405280519060200120905092915050565b6000806000611af78585611dbe565b90925090506000816004811115611b1057611b1061244b565b148015611b2e5750856001600160a01b0316826001600160a01b0316145b15611b3e57600192505050611807565b600080876001600160a01b0316631626ba7e60e01b8888604051602401611b669291906128f8565b60408051601f198184030181529181526020820180517bffffffffffffffffffffffffffffffffffffffffffffffffffffffff166001600160e01b0319909416939093179092529051611bb99190612911565b600060405180830381855afa9150503d8060008114611bf4576040519150601f19603f3d011682016040523d82523d6000602084013e611bf9565b606091505b5091509150818015611c0c575080516020145b8015611c4c575080517f1626ba7e0000000000000000000000000000000000000000000000000000000090611c4a908301602090810190840161292d565b145b98975050505050505050565b6000828152602081815260408083206001600160a01b038516845290915290205460ff16610c3e57611c8981611e03565b611c94836020611e15565b604051602001611ca5929190612946565b60408051601f198184030181529082905262461bcd60e51b8252610783916004016129c7565b6000306001600160a01b037f000000000000000000000000000000000000000000000000000000000000000016148015611d2457507f000000000000000000000000000000000000000000000000000000000000000046145b15611d4e57507f000000000000000000000000000000000000000000000000000000000000000090565b611db97f00000000000000000000000000000000000000000000000000000000000000007f00000000000000000000000000000000000000000000000000000000000000007f0000000000000000000000000000000000000000000000000000000000000000611ff6565b905090565b6000808251604103611df45760208301516040840151606085015160001a611de887828585612025565b94509450505050611dfc565b506000905060025b9250929050565b60606106fb6001600160a01b03831660145b60606000611e248360026129da565b611e2f9060026127e5565b67ffffffffffffffff811115611e4757611e47612243565b6040519080825280601f01601f191660200182016040528015611e71576020820181803683370190505b5090507f300000000000000000000000000000000000000000000000000000000000000081600081518110611ea857611ea86129f1565b60200101906001600160f81b031916908160001a9053507f780000000000000000000000000000000000000000000000000000000000000081600181518110611ef357611ef36129f1565b60200101906001600160f81b031916908160001a9053506000611f178460026129da565b611f229060016127e5565b90505b6001811115611fa7577f303132333435363738396162636465660000000000000000000000000000000085600f1660108110611f6357611f636129f1565b1a60f81b828281518110611f7957611f796129f1565b60200101906001600160f81b031916908160001a90535060049490941c93611fa081612a07565b9050611f25565b5083156118075760405162461bcd60e51b815260206004820181905260248201527f537472696e67733a20686578206c656e67746820696e73756666696369656e746044820152606401610783565b6040805160208101859052908101839052606081018290524660808201523060a082015260009060c0016117ee565b6000807f7fffffffffffffffffffffffffffffff5d576e7357a4501ddfe92f46681b20a083111561205c57506000905060036120e0565b6040805160008082526020820180845289905260ff881692820192909252606081018690526080810185905260019060a0016020604051602081039080840390855afa1580156120b0573d6000803e3d6000fd5b5050604051601f1901519150506001600160a01b0381166120d9576000600192509250506120e0565b9150600090505b94509492505050565b60408051608081019091526000808252602082019081526020016121196040518060200160405280600081525090565b8152600060209091015290565b60006020828403121561213857600080fd5b81356001600160e01b03198116811461180757600080fd5b80356001600160a01b038116811461216757600080fd5b919050565b6000806040838503121561217f57600080fd5b61218883612150565b946020939093013593505050565b6000602082840312156121a857600080fd5b61180782612150565b6020808252825182820181905260009190848201906040850190845b818110156121f25783516001600160a01b0316835292840192918401916001016121cd565b50909695505050505050565b60006020828403121561221057600080fd5b5035919050565b6000806040838503121561222a57600080fd5b8235915061223a60208401612150565b90509250929050565b634e487b7160e01b600052604160045260246000fd5b6040516080810167ffffffffffffffff8111828210171561227c5761227c612243565b60405290565b60006060828403121561229457600080fd5b6040516060810181811067ffffffffffffffff821117156122b7576122b7612243565b6040529050806122c683612150565b815260208301356020820152604083013560408201525092915050565b6000606082840312156122f557600080fd5b6118078383612282565b600082601f83011261231057600080fd5b813567ffffffffffffffff8082111561232b5761232b612243565b604051601f8301601f19908116603f0116810190828211818310171561235357612353612243565b8160405283815286602085880101111561236c57600080fd5b836020870160208301376000602085830101528094505050505092915050565b60006020828403121561239e57600080fd5b813567ffffffffffffffff808211156123b657600080fd5b90830190608082860312156123ca57600080fd5b6040516040810181811083821117156123e5576123e5612243565b6040526123f28684612282565b815260608301358281111561240657600080fd5b612412878286016122ff565b60208301525095945050505050565b6000806040838503121561243457600080fd5b61243d83612150565b915061223a60208401612150565b634e487b7160e01b600052602160045260246000fd5b81518152602082015160808201906003811061248d57634e487b7160e01b600052602160045260246000fd5b80602084015250604083015151604083015267ffffffffffffffff606084015116606083015292915050565b600080604083850312156124cc57600080fd5b82359150602083013567ffffffffffffffff8111156124ea57600080fd5b6124f6858286016122ff565b9150509250929050565b60006020828403121561251257600080fd5b813567ffffffffffffffff8082111561252a57600080fd5b908301906080828603121561253e57600080fd5b612546612259565b82358281111561255557600080fd5b612561878286016122ff565b82525060208301358281111561257657600080fd5b612582878286016122ff565b6020830152506040830135604082015261259e60608401612150565b606082015295945050505050565b6000602082840312156125be57600080fd5b813567ffffffffffffffff8111156125d557600080fd5b611884848285016122ff565b600080600080608085870312156125f757600080fd5b61260085612150565b93506020850135925060408501359150606085013567ffffffffffffffff81111561262a57600080fd5b612636878288016122ff565b91505092959194509250565b600080600080600060a0868803121561265a57600080fd5b61266386612150565b945061267160208701612150565b93506040860135925060608601359150608086013567ffffffffffffffff81111561269b57600080fd5b6126a7888289016122ff565b9150509295509295909350565b6000806000606084860312156126c957600080fd5b6126d284612150565b95602085013595506040909401359392505050565b600080600080608085870312156126fd57600080fd5b843567ffffffffffffffff8082111561271557600080fd5b612721888389016122ff565b9550602087013591508082111561273757600080fd5b50612744878288016122ff565b9350506040850135915061275a60608601612150565b905092959194509250565b60008060006060848603121561277a57600080fd5b61278384612150565b925060208401359150604084013567ffffffffffffffff8111156127a657600080fd5b6127b2868287016122ff565b9150509250925092565b634e487b7160e01b600052601160045260246000fd5b818103818111156106fb576106fb6127bc565b808201808211156106fb576106fb6127bc565b67ffffffffffffffff818116838216019080821115612819576128196127bc565b5092915050565b60006020828403121561283257600080fd5b8151801515811461180757600080fd5b60005b8381101561285d578181015183820152602001612845565b50506000910152565b6000815180845261287e816020860160208601612842565b601f01601f19169290920160200192915050565b85815260a0602082015260006128ab60a0830187612866565b82810360408401526128bd8187612866565b9150508360608301526001600160a01b03831660808301529695505050505050565b60ff81811683821601908111156106fb576106fb6127bc565b8281526040602082015260006118846040830184612866565b60008251612923818460208701612842565b9190910192915050565b60006020828403121561293f57600080fd5b5051919050565b7f416363657373436f6e74726f6c3a206163636f756e742000000000000000000081526000835161297e816017850160208801612842565b7f206973206d697373696e6720726f6c652000000000000000000000000000000060179184019182015283516129bb816028840160208801612842565b01602801949350505050565b6020815260006118076020830184612866565b80820281158282048414176106fb576106fb6127bc565b634e487b7160e01b600052603260045260246000fd5b600081612a1657612a166127bc565b50600019019056fea2646970667358221220294703be55e1e348e35d4db5223a2dfaaf90def3bad620d09ee578f67b00a80064736f6c634300081100338b73c3c69bb8fe3d512ecc4cf759cc79239f7b179b0ffacaa9a75d522b39400f",
  "linkReferences": {},
  "deployedLinkReferences": {}
}