{
  "_format": "hh-sol-artifact-1",
  "contractName": "Channel",
  "sourceName": "contracts/channel.sol",
  "abi": [
    {
      "inputs": [
        {
          "internalType": "address",
          "name": "_token",
          "type": "address"
        }
      ],
      "stateMutability": "nonpayable",
      "type": "constructor"
    },
    {
      "anonymous": false,
      "inputs": [
        {
          "indexed": true,
          "internalType": "address",
          "name": "from",
          "type": "address"
        },
        {
          "indexed": true,
          "internalType": "address",
          "name": "to",
          "type": "address"
        },
        {
          "indexed": false,
          "internalType": "uint256",
          "name": "amount",
          "type": "uint256"
        }
      ],
      "name": "Defund",
      "type": "event"
    },
    {
      "anonymous": false,
      "inputs": [
        {
          "indexed": true,
          "internalType": "address",
          "name": "from",
          "type": "address"
        },
        {
          "indexed": true,
          "internalType": "address",
          "name": "to",
          "type": "address"
        },
        {
          "indexed": false,
          "internalType": "uint256",
          "name": "amount",
          "type": "uint256"
        }
      ],
      "name": "Fund",
      "type": "event"
    },
    {
      "anonymous": false,
      "inputs": [
        {
          "indexed": true,
          "internalType": "address",
          "name": "from",
          "type": "address"
        },
        {
          "indexed": true,
          "internalType": "address",
          "name": "to",
          "type": "address"
        },
        {
          "indexed": false,
          "internalType": "uint64",
          "name": "time",
          "type": "uint64"
        }
      ],
      "name": "Lock",
      "type": "event"
    },
    {
      "anonymous": false,
      "inputs": [
        {
          "indexed": false,
          "internalType": "address",
          "name": "from",
          "type": "address"
        },
        {
          "indexed": false,
          "internalType": "address",
          "name": "to",
          "type": "address"
        },
        {
          "indexed": false,
          "internalType": "uint256",
          "name": "amount",
          "type": "uint256"
        }
      ],
      "name": "Transfer",
      "type": "event"
    },
    {
      "inputs": [
        {
          "internalType": "uint256",
          "name": "amount",
          "type": "uint256"
        }
      ],
      "name": "airdrop",
      "outputs": [
        {
          "internalType": "uint256",
          "name": "",
          "type": "uint256"
        }
      ],
      "stateMutability": "nonpayable",
      "type": "function"
    },
    {
      "inputs": [
        {
          "internalType": "address",
          "name": "account",
          "type": "address"
        }
      ],
      "name": "balanceOf",
      "outputs": [
        {
          "internalType": "uint256",
          "name": "",
          "type": "uint256"
        }
      ],
      "stateMutability": "view",
      "type": "function"
    },
    {
      "inputs": [],
      "name": "decimals",
      "outputs": [
        {
          "internalType": "uint8",
          "name": "",
          "type": "uint8"
        }
      ],
      "stateMutability": "view",
      "type": "function"
    },
    {
      "inputs": [
        {
          "internalType": "uint256",
          "name": "amount",
          "type": "uint256"
        }
      ],
      "name": "deposit",
      "outputs": [
        {
          "internalType": "bool",
          "name": "",
          "type": "bool"
        }
      ],
      "stateMutability": "nonpayable",
      "type": "function"
    },
    {
      "inputs": [
        {
          "internalType": "address",
          "name": "from",
          "type": "address"
        },
        {
          "internalType": "address",
          "name": "to",
          "type": "address"
        }
      ],
      "name": "getChannelByAddresses",
      "outputs": [
        {
          "components": [
            {
              "internalType": "uint256",
              "name": "value",
              "type": "uint256"
            },
            {
              "internalType": "enum Channel.State",
              "name": "state",
              "type": "uint8"
            },
            {
              "components": [
                {
                  "internalType": "uint256",
                  "name": "_value",
                  "type": "uint256"
                }
              ],
              "internalType": "struct Counters.Counter",
              "name": "round",
              "type": "tuple"
            },
            {
              "internalType": "uint64",
              "name": "lockTime",
              "type": "uint64"
            }
          ],
          "internalType": "struct Channel.ChannelState",
          "name": "",
          "type": "tuple"
        }
      ],
      "stateMutability": "view",
      "type": "function"
    },
    {
      "inputs": [
        {
          "internalType": "address",
          "name": "sender",
          "type": "address"
        }
      ],
      "name": "getChannelReciversBySender",
      "outputs": [
        {
          "internalType": "address[]",
          "name": "",
          "type": "address[]"
        }
      ],
      "stateMutability": "view",
      "type": "function"
    },
    {
      "inputs": [
        {
          "internalType": "address",
          "name": "reciver",
          "type": "address"
        }
      ],
      "name": "getChannelSendersByReciver",
      "outputs": [
        {
          "internalType": "address[]",
          "name": "",
          "type": "address[]"
        }
      ],
      "stateMutability": "view",
      "type": "function"
    },
    {
      "inputs": [
        {
          "internalType": "bytes32",
          "name": "_messageHash",
          "type": "bytes32"
        }
      ],
      "name": "getEthSignedMessageHash",
      "outputs": [
        {
          "internalType": "bytes32",
          "name": "",
          "type": "bytes32"
        }
      ],
      "stateMutability": "pure",
      "type": "function"
    },
    {
      "inputs": [
        {
          "internalType": "address",
          "name": "reciver",
          "type": "address"
        },
        {
          "internalType": "uint256",
          "name": "amount",
          "type": "uint256"
        },
        {
          "internalType": "uint64",
          "name": "round",
          "type": "uint64"
        }
      ],
      "name": "getMessageHash",
      "outputs": [
        {
          "internalType": "bytes32",
          "name": "",
          "type": "bytes32"
        }
      ],
      "stateMutability": "pure",
      "type": "function"
    },
    {
      "inputs": [
        {
          "internalType": "address",
          "name": "to",
          "type": "address"
        },
        {
          "internalType": "uint256",
          "name": "value",
          "type": "uint256"
        }
      ],
      "name": "open",
      "outputs": [],
      "stateMutability": "nonpayable",
      "type": "function"
    },
    {
      "inputs": [
        {
          "internalType": "address",
          "name": "from",
          "type": "address"
        },
        {
          "internalType": "uint256",
          "name": "amount",
          "type": "uint256"
        },
        {
          "internalType": "uint64",
          "name": "round",
          "type": "uint64"
        },
        {
          "internalType": "bytes",
          "name": "sig",
          "type": "bytes"
        }
      ],
      "name": "reciverCollectPayment",
      "outputs": [],
      "stateMutability": "nonpayable",
      "type": "function"
    },
    {
      "inputs": [
        {
          "internalType": "bytes32",
          "name": "_ethSignedMessageHash",
          "type": "bytes32"
        },
        {
          "internalType": "bytes",
          "name": "_signature",
          "type": "bytes"
        }
      ],
      "name": "recoverSigner",
      "outputs": [
        {
          "internalType": "address",
          "name": "",
          "type": "address"
        }
      ],
      "stateMutability": "pure",
      "type": "function"
    },
    {
      "inputs": [
        {
          "internalType": "address",
          "name": "to",
          "type": "address"
        },
        {
          "internalType": "uint256",
          "name": "amount",
          "type": "uint256"
        }
      ],
      "name": "senderFundChannel",
      "outputs": [],
      "stateMutability": "nonpayable",
      "type": "function"
    },
    {
      "inputs": [
        {
          "internalType": "address",
          "name": "to",
          "type": "address"
        }
      ],
      "name": "senderLock",
      "outputs": [],
      "stateMutability": "nonpayable",
      "type": "function"
    },
    {
      "inputs": [
        {
          "internalType": "address",
          "name": "to",
          "type": "address"
        }
      ],
      "name": "senderWithdrawal",
      "outputs": [],
      "stateMutability": "nonpayable",
      "type": "function"
    },
    {
      "inputs": [
        {
          "internalType": "bytes",
          "name": "sig",
          "type": "bytes"
        }
      ],
      "name": "splitSignature",
      "outputs": [
        {
          "internalType": "bytes32",
          "name": "r",
          "type": "bytes32"
        },
        {
          "internalType": "bytes32",
          "name": "s",
          "type": "bytes32"
        },
        {
          "internalType": "uint8",
          "name": "v",
          "type": "uint8"
        }
      ],
      "stateMutability": "pure",
      "type": "function"
    },
    {
      "inputs": [],
      "name": "token",
      "outputs": [
        {
          "internalType": "contract IERC20",
          "name": "",
          "type": "address"
        }
      ],
      "stateMutability": "view",
      "type": "function"
    },
    {
      "inputs": [
        {
          "internalType": "address",
          "name": "to",
          "type": "address"
        },
        {
          "internalType": "uint256",
          "name": "amount",
          "type": "uint256"
        }
      ],
      "name": "transfer",
      "outputs": [
        {
          "internalType": "bool",
          "name": "",
          "type": "bool"
        }
      ],
      "stateMutability": "nonpayable",
      "type": "function"
    },
    {
      "inputs": [
        {
          "internalType": "uint256",
          "name": "amount",
          "type": "uint256"
        }
      ],
      "name": "withdrawal",
      "outputs": [
        {
          "internalType": "bool",
          "name": "",
          "type": "bool"
        }
      ],
      "stateMutability": "nonpayable",
      "type": "function"
    }
  ],
  "bytecode": "0x608060405260018054600160a01b600160e81b0319167c120000000000015180000000000000000000000000000000000000000017905534801561004257600080fd5b5060405161189c38038061189c83398101604081905261006191610086565b600180546001600160a01b0319166001600160a01b03929092169190911790556100b6565b60006020828403121561009857600080fd5b81516001600160a01b03811681146100af57600080fd5b9392505050565b6117d7806100c56000396000f3fe608060405234801561001057600080fd5b50600436106101515760003560e01c80637f968ac7116100cd578063a9059cbb11610081578063b6b55f2511610066578063b6b55f25146103b0578063fa540801146103c3578063fc0c546a1461042457600080fd5b8063a9059cbb1461038a578063b54f33361461039d57600080fd5b806397aba7f9116100b257806397aba7f91461031b57806397dc4a1314610346578063a7bb58031461035957600080fd5b80637f968ac7146102d8578063835fc6ca146102f857600080fd5b8063313ce567116101245780634cc3bf6f116101095780634cc3bf6f1461028957806367d0e5051461029c57806370a08231146102af57600080fd5b8063313ce567146101ba5780633ebf411a146101f957600080fd5b80630a0e5c9d146101565780631360569d1461016b57806317df34f11461017e57806329c15398146101a7575b600080fd5b6101696101643660046113e5565b610437565b005b61016961017936600461140f565b610665565b61019161018c36600461140f565b61077d565b60405161019e9190611431565b60405180910390f35b6101696101b5366004611539565b6107f3565b6001546101e7907c0100000000000000000000000000000000000000000000000000000000900460ff1681565b60405160ff909116815260200161019e565b61027b6102073660046115a1565b6040516bffffffffffffffffffffffff19606085901b166020820152603481018390527fffffffffffffffff00000000000000000000000000000000000000000000000060c083901b166054820152600090605c016040516020818303038152906040528051906020012090509392505050565b60405190815260200161019e565b61016961029736600461140f565b6109fa565b6101916102aa36600461140f565b610bab565b61027b6102bd36600461140f565b6001600160a01b031660009081526020819052604090205490565b6102eb6102e63660046115dd565b610c1f565b60405161019e9190611626565b61030b61030636600461167e565b610cbf565b604051901515815260200161019e565b61032e610329366004611697565b610ddb565b6040516001600160a01b03909116815260200161019e565b61027b61035436600461167e565b610e5a565b61036c6103673660046116de565b610e96565b60408051938452602084019290925260ff169082015260600161019e565b61030b6103983660046113e5565b610f0a565b6101696103ab3660046113e5565b611100565b61030b6103be36600461167e565b611268565b61027b6103d136600461167e565b6040517f19457468657265756d205369676e6564204d6573736167653a0a3332000000006020820152603c8101829052600090605c01604051602081830303815290604052805190602001209050919050565b60015461032e906001600160a01b031681565b33600090815260208190526040902054808211156104b05760405162461bcd60e51b815260206004820152602b60248201527f796f7520646f206e6f742068617665207468652062616c616e636520746f206660448201526a1d5b990818da185b9b995b60aa1b60648201526084015b60405180910390fd5b3360009081526002602081815260408084206001600160a01b038816855290915282206001015460ff16908111156104ea576104ea611610565b146104f457600080fd5b33600081815260208181526040808320868603905580518083018252838152815160808101835287815260018185018181528285018490526060830187905296865260028086528487206001600160a01b038c1688529095529290942084518155945185830180549296949193909260ff191691849081111561057957610579611610565b02179055506040828101515160028301556060909201516003918201805467ffffffffffffffff191667ffffffffffffffff90921691909117905533600081815260209283528381208054600181810183559183528483200180547fffffffffffffffffffffffff00000000000000000000000000000000000000009081166001600160a01b038c16908117909255818452600486528684208054938401815584529285902090910180549092168317909155925186815290917f2d48ac6acd9c250f93c75e6a8dd61f6f1c062b7f83c1f604cf41a3352df683fc91015b60405180910390a350505050565b338160016001600160a01b03808416600090815260026020818152604080842094871684529390529190206001015460ff16908111156106a7576106a7611610565b146106f45760405162461bcd60e51b815260206004820152601360248201527f4368616e6e656c206973206e6f74206f70656e0000000000000000000000000060448201526064016104a7565b3360008181526002602081815260408084206001600160a01b0389168086529083529381902060018101805460ff19169094179093556003909201805467ffffffffffffffff19164267ffffffffffffffff8116918217909255925192835293917ffc045bfcf0d75e572946e42f3b53bac7ec2a832f291f8cce267876742d820ebd9101610657565b6001600160a01b0381166000908152600460209081526040918290208054835181840281018401909452808452606093928301828280156107e757602002820191906000526020600020905b81546001600160a01b031681526001909101906020018083116107c9575b50505050509050919050565b6001600160a01b038416600090815260026020818152604080842033855290915290912001548267ffffffffffffffff161461082e57600080fd5b6001600160a01b038416600090815260026020908152604080832033845290915290205483111561085e57600080fd5b604080516bffffffffffffffffffffffff193360601b16602080830191909152603482018690527fffffffffffffffff00000000000000000000000000000000000000000000000060c086901b1660548301528251808303603c018152605c830184528051908201207f19457468657265756d205369676e6564204d6573736167653a0a333200000000607c84015260988084018290528451808503909101815260b89093019093528151910120856001600160a01b03166109208285610ddb565b6001600160a01b03161461093357600080fd5b6001600160a01b038616600090815260026020908152604080832033845290915281208054879290610966908490611731565b90915550506001600160a01b0386166000908152600260208181526040808420338552825280842090920180546001019055829052812080548792906109ad908490611744565b909155505060405185815233906001600160a01b038816907f3bb082152a6aeca4accd7a549583361cf3387c060a33681f9bc6f22fa6333f8c9060200160405180910390a3505050505050565b3360008181526002602081815260408084206001600160a01b03871685529091529091206001015483919060ff1681811115610a3857610a38611610565b14610a855760405162461bcd60e51b815260206004820152601560248201527f4368616e6e656c206973206e6f74206c6f636b6564000000000000000000000060448201526064016104a7565b3360009081526002602090815260408083206001600160a01b038716845290915290206003015460015467ffffffffffffffff91821691610adf917401000000000000000000000000000000000000000090041682611757565b67ffffffffffffffff164210610af457600080fd5b3360008181526002602090815260408083206001600160a01b038916845282528083208054908490559383529082905281208054839290610b36908490611744565b90915550503360008181526002602090815260408083206001600160a01b038a16808552908352928190206001908101805460ff19169091179055518481529192917f3bb082152a6aeca4accd7a549583361cf3387c060a33681f9bc6f22fa6333f8c91015b60405180910390a35050505050565b6001600160a01b0381166000908152600360209081526040918290208054835181840281018401909452808452606093928301828280156107e7576020028201919060005260206000209081546001600160a01b031681526001909101906020018083116107c95750505050509050919050565b610c2761138c565b6001600160a01b038084166000908152600260208181526040808420948716845293815291839020835160808101909452805484526001810154909284019160ff90911690811115610c7b57610c7b611610565b6002811115610c8c57610c8c611610565b815260408051602081810183526002850154825283015260039092015467ffffffffffffffff1691015290505b92915050565b3360008181526020819052604081205490919080841115610cdf57600080fd5b6001600160a01b0382811660008181526020819052604090819020878503905560015490517fa9059cbb0000000000000000000000000000000000000000000000000000000081526004810192909252602482018790529091169063a9059cbb906044016020604051808303816000875af1158015610d62573d6000803e3d6000fd5b505050506040513d601f19601f82011682018060405250810190610d86919061177f565b50604080516001600160a01b0384168152600060208201529081018590527fddf252ad1be2c89b69c2b068fc378daa952ba7f163c4a11628f55a4df523b3ef9060600160405180910390a15060019392505050565b600080600080610dea85610e96565b6040805160008152602081018083528b905260ff8316918101919091526060810184905260808101839052929550909350915060019060a0016020604051602081039080840390855afa158015610e45573d6000803e3d6000fd5b5050604051601f190151979650505050505050565b33600090815260208190526040812080548391908390610e7b908490611744565b90915550503360009081526020819052604090205492915050565b60008060008351604114610eec5760405162461bcd60e51b815260206004820152601860248201527f696e76616c6964207369676e6174757265206c656e677468000000000000000060448201526064016104a7565b50505060208101516040820151606090920151909260009190911a90565b60003380610f805760405162461bcd60e51b815260206004820152602560248201527f45524332303a207472616e736665722066726f6d20746865207a65726f20616460448201527f647265737300000000000000000000000000000000000000000000000000000060648201526084016104a7565b6001600160a01b038416610ffc5760405162461bcd60e51b815260206004820152602360248201527f45524332303a207472616e7366657220746f20746865207a65726f206164647260448201527f657373000000000000000000000000000000000000000000000000000000000060648201526084016104a7565b6001600160a01b0381166000908152602081905260409020548381101561108b5760405162461bcd60e51b815260206004820152602660248201527f45524332303a207472616e7366657220616d6f756e742065786365656473206260448201527f616c616e6365000000000000000000000000000000000000000000000000000060648201526084016104a7565b6001600160a01b0382811660008181526020818152604080832089870390559389168083529184902080548901905583519283528201529081018590527fddf252ad1be2c89b69c2b068fc378daa952ba7f163c4a11628f55a4df523b3ef9060600160405180910390a1506001949350505050565b338260016001600160a01b03808416600090815260026020818152604080842094871684529390529190206001015460ff169081111561114257611142611610565b1461118f5760405162461bcd60e51b815260206004820152601360248201527f4368616e6e656c206973206e6f74206f70656e0000000000000000000000000060448201526064016104a7565b33600090815260208190526040902054808411156112035760405162461bcd60e51b815260206004820152602b60248201527f796f7520646f206e6f742068617665207468652062616c616e636520746f206660448201526a1d5b990818da185b9b995b60aa1b60648201526084016104a7565b336000818152602081815260408083208886039055600282528083206001600160a01b038a1680855290835292819020805489019055518781529192917f2d48ac6acd9c250f93c75e6a8dd61f6f1c062b7f83c1f604cf41a3352df683fc9101610b9c565b6001546040517f23b872dd00000000000000000000000000000000000000000000000000000000815233600482018190523060248301526044820184905260009290916001600160a01b03909116906323b872dd906064016020604051808303816000875af11580156112df573d6000803e3d6000fd5b505050506040513d601f19601f82011682018060405250810190611303919061177f565b61130c57600080fd5b6001600160a01b03811660009081526020819052604081208054859290611334908490611744565b909155505060408051600081526001600160a01b03831660208201529081018490527fddf252ad1be2c89b69c2b068fc378daa952ba7f163c4a11628f55a4df523b3ef9060600160405180910390a150600192915050565b60408051608081019091526000808252602082019081526020016113bc6040518060200160405280600081525090565b8152600060209091015290565b80356001600160a01b03811681146113e057600080fd5b919050565b600080604083850312156113f857600080fd5b611401836113c9565b946020939093013593505050565b60006020828403121561142157600080fd5b61142a826113c9565b9392505050565b6020808252825182820181905260009190848201906040850190845b818110156114725783516001600160a01b03168352928401929184019160010161144d565b50909695505050505050565b803567ffffffffffffffff811681146113e057600080fd5b634e487b7160e01b600052604160045260246000fd5b600082601f8301126114bd57600080fd5b813567ffffffffffffffff808211156114d8576114d8611496565b604051601f8301601f19908116603f0116810190828211818310171561150057611500611496565b8160405283815286602085880101111561151957600080fd5b836020870160208301376000602085830101528094505050505092915050565b6000806000806080858703121561154f57600080fd5b611558856113c9565b93506020850135925061156d6040860161147e565b9150606085013567ffffffffffffffff81111561158957600080fd5b611595878288016114ac565b91505092959194509250565b6000806000606084860312156115b657600080fd5b6115bf846113c9565b9250602084013591506115d46040850161147e565b90509250925092565b600080604083850312156115f057600080fd5b6115f9836113c9565b9150611607602084016113c9565b90509250929050565b634e487b7160e01b600052602160045260246000fd5b81518152602082015160808201906003811061165257634e487b7160e01b600052602160045260246000fd5b80602084015250604083015151604083015267ffffffffffffffff606084015116606083015292915050565b60006020828403121561169057600080fd5b5035919050565b600080604083850312156116aa57600080fd5b82359150602083013567ffffffffffffffff8111156116c857600080fd5b6116d4858286016114ac565b9150509250929050565b6000602082840312156116f057600080fd5b813567ffffffffffffffff81111561170757600080fd5b611713848285016114ac565b949350505050565b634e487b7160e01b600052601160045260246000fd5b81810381811115610cb957610cb961171b565b80820180821115610cb957610cb961171b565b67ffffffffffffffff8181168382160190808211156117785761177861171b565b5092915050565b60006020828403121561179157600080fd5b8151801515811461142a57600080fdfea2646970667358221220e199673cbbc7b0171d123c84446b763cc0d525644ec9d52b3b553e6802de53fb64736f6c63430008110033",
  "linkReferences": {},
  "deployedLinkReferences": {}
}