{
  "_format": "hh-sol-artifact-1",
  "contractName": "Channel",
  "sourceName": "contracts/channel.sol",
  "abi": [
    {
      "inputs": [
        {
          "internalType": "address",
          "name": "_token",
          "type": "address"
        }
      ],
      "stateMutability": "nonpayable",
      "type": "constructor"
    },
    {
      "anonymous": false,
      "inputs": [
        {
          "indexed": true,
          "internalType": "uint64",
          "name": "ID",
          "type": "uint64"
        },
        {
          "indexed": false,
          "internalType": "address",
          "name": "user",
          "type": "address"
        },
        {
          "indexed": false,
          "internalType": "uint256",
          "name": "amount",
          "type": "uint256"
        }
      ],
      "name": "Defund",
      "type": "event"
    },
    {
      "anonymous": false,
      "inputs": [
        {
          "indexed": true,
          "internalType": "uint64",
          "name": "ID",
          "type": "uint64"
        },
        {
          "indexed": false,
          "internalType": "uint256",
          "name": "amount",
          "type": "uint256"
        }
      ],
      "name": "Fund",
      "type": "event"
    },
    {
      "anonymous": false,
      "inputs": [
        {
          "indexed": true,
          "internalType": "uint64",
          "name": "ID",
          "type": "uint64"
        },
        {
          "indexed": false,
          "internalType": "uint64",
          "name": "time",
          "type": "uint64"
        }
      ],
      "name": "Lock",
      "type": "event"
    },
    {
      "anonymous": false,
      "inputs": [
        {
          "indexed": false,
          "internalType": "address",
          "name": "from",
          "type": "address"
        },
        {
          "indexed": false,
          "internalType": "address",
          "name": "to",
          "type": "address"
        },
        {
          "indexed": false,
          "internalType": "uint256",
          "name": "amount",
          "type": "uint256"
        }
      ],
      "name": "Transfer",
      "type": "event"
    },
    {
      "inputs": [
        {
          "internalType": "uint256",
          "name": "amount",
          "type": "uint256"
        }
      ],
      "name": "airdrop",
      "outputs": [
        {
          "internalType": "uint256",
          "name": "",
          "type": "uint256"
        }
      ],
      "stateMutability": "nonpayable",
      "type": "function"
    },
    {
      "inputs": [
        {
          "internalType": "address",
          "name": "account",
          "type": "address"
        }
      ],
      "name": "balanceOf",
      "outputs": [
        {
          "internalType": "uint256",
          "name": "",
          "type": "uint256"
        }
      ],
      "stateMutability": "view",
      "type": "function"
    },
    {
      "inputs": [
        {
          "internalType": "uint256",
          "name": "",
          "type": "uint256"
        }
      ],
      "name": "channels",
      "outputs": [
        {
          "internalType": "address",
          "name": "from",
          "type": "address"
        },
        {
          "internalType": "address",
          "name": "to",
          "type": "address"
        },
        {
          "internalType": "uint256",
          "name": "value",
          "type": "uint256"
        },
        {
          "internalType": "enum Channel.State",
          "name": "state",
          "type": "uint8"
        },
        {
          "components": [
            {
              "internalType": "uint256",
              "name": "_value",
              "type": "uint256"
            }
          ],
          "internalType": "struct Counters.Counter",
          "name": "round",
          "type": "tuple"
        },
        {
          "internalType": "uint64",
          "name": "lockTime",
          "type": "uint64"
        }
      ],
      "stateMutability": "view",
      "type": "function"
    },
    {
      "inputs": [],
      "name": "decimals",
      "outputs": [
        {
          "internalType": "uint8",
          "name": "",
          "type": "uint8"
        }
      ],
      "stateMutability": "view",
      "type": "function"
    },
    {
      "inputs": [
        {
          "internalType": "uint256",
          "name": "amount",
          "type": "uint256"
        }
      ],
      "name": "deposit",
      "outputs": [
        {
          "internalType": "bool",
          "name": "",
          "type": "bool"
        }
      ],
      "stateMutability": "nonpayable",
      "type": "function"
    },
    {
      "inputs": [
        {
          "internalType": "address",
          "name": "reciver",
          "type": "address"
        }
      ],
      "name": "getChannelIDsByReciver",
      "outputs": [
        {
          "internalType": "uint64[]",
          "name": "",
          "type": "uint64[]"
        }
      ],
      "stateMutability": "view",
      "type": "function"
    },
    {
      "inputs": [
        {
          "internalType": "address",
          "name": "sender",
          "type": "address"
        }
      ],
      "name": "getChannelIDsBySender",
      "outputs": [
        {
          "internalType": "uint64[]",
          "name": "",
          "type": "uint64[]"
        }
      ],
      "stateMutability": "view",
      "type": "function"
    },
    {
      "inputs": [
        {
          "internalType": "bytes32",
          "name": "_messageHash",
          "type": "bytes32"
        }
      ],
      "name": "getEthSignedMessageHash",
      "outputs": [
        {
          "internalType": "bytes32",
          "name": "",
          "type": "bytes32"
        }
      ],
      "stateMutability": "pure",
      "type": "function"
    },
    {
      "inputs": [
        {
          "internalType": "uint64",
          "name": "id",
          "type": "uint64"
        },
        {
          "internalType": "uint256",
          "name": "amount",
          "type": "uint256"
        },
        {
          "internalType": "uint64",
          "name": "round",
          "type": "uint64"
        }
      ],
      "name": "getMessageHash",
      "outputs": [
        {
          "internalType": "bytes32",
          "name": "",
          "type": "bytes32"
        }
      ],
      "stateMutability": "pure",
      "type": "function"
    },
    {
      "inputs": [
        {
          "internalType": "address",
          "name": "to",
          "type": "address"
        },
        {
          "internalType": "uint256",
          "name": "value",
          "type": "uint256"
        }
      ],
      "name": "open",
      "outputs": [
        {
          "internalType": "uint64",
          "name": "",
          "type": "uint64"
        }
      ],
      "stateMutability": "nonpayable",
      "type": "function"
    },
    {
      "inputs": [
        {
          "internalType": "uint64",
          "name": "id",
          "type": "uint64"
        },
        {
          "internalType": "uint256",
          "name": "amount",
          "type": "uint256"
        },
        {
          "internalType": "uint64",
          "name": "round",
          "type": "uint64"
        },
        {
          "internalType": "bytes",
          "name": "sig",
          "type": "bytes"
        }
      ],
      "name": "reciverCollectPayment",
      "outputs": [
        {
          "internalType": "bool",
          "name": "",
          "type": "bool"
        }
      ],
      "stateMutability": "nonpayable",
      "type": "function"
    },
    {
      "inputs": [
        {
          "internalType": "bytes32",
          "name": "_ethSignedMessageHash",
          "type": "bytes32"
        },
        {
          "internalType": "bytes",
          "name": "_signature",
          "type": "bytes"
        }
      ],
      "name": "recoverSigner",
      "outputs": [
        {
          "internalType": "address",
          "name": "",
          "type": "address"
        }
      ],
      "stateMutability": "pure",
      "type": "function"
    },
    {
      "inputs": [
        {
          "internalType": "uint64",
          "name": "id",
          "type": "uint64"
        },
        {
          "internalType": "uint256",
          "name": "amount",
          "type": "uint256"
        }
      ],
      "name": "senderFundChannel",
      "outputs": [
        {
          "internalType": "bool",
          "name": "",
          "type": "bool"
        }
      ],
      "stateMutability": "nonpayable",
      "type": "function"
    },
    {
      "inputs": [
        {
          "internalType": "uint64",
          "name": "id",
          "type": "uint64"
        }
      ],
      "name": "senderLock",
      "outputs": [
        {
          "internalType": "uint64",
          "name": "",
          "type": "uint64"
        }
      ],
      "stateMutability": "nonpayable",
      "type": "function"
    },
    {
      "inputs": [
        {
          "internalType": "uint64",
          "name": "id",
          "type": "uint64"
        }
      ],
      "name": "senderWithdrawal",
      "outputs": [
        {
          "internalType": "uint256",
          "name": "",
          "type": "uint256"
        }
      ],
      "stateMutability": "nonpayable",
      "type": "function"
    },
    {
      "inputs": [
        {
          "internalType": "bytes",
          "name": "sig",
          "type": "bytes"
        }
      ],
      "name": "splitSignature",
      "outputs": [
        {
          "internalType": "bytes32",
          "name": "r",
          "type": "bytes32"
        },
        {
          "internalType": "bytes32",
          "name": "s",
          "type": "bytes32"
        },
        {
          "internalType": "uint8",
          "name": "v",
          "type": "uint8"
        }
      ],
      "stateMutability": "pure",
      "type": "function"
    },
    {
      "inputs": [],
      "name": "token",
      "outputs": [
        {
          "internalType": "contract IERC20",
          "name": "",
          "type": "address"
        }
      ],
      "stateMutability": "view",
      "type": "function"
    },
    {
      "inputs": [
        {
          "internalType": "address",
          "name": "to",
          "type": "address"
        },
        {
          "internalType": "uint256",
          "name": "amount",
          "type": "uint256"
        }
      ],
      "name": "transfer",
      "outputs": [
        {
          "internalType": "bool",
          "name": "",
          "type": "bool"
        }
      ],
      "stateMutability": "nonpayable",
      "type": "function"
    },
    {
      "inputs": [
        {
          "internalType": "uint256",
          "name": "amount",
          "type": "uint256"
        }
      ],
      "name": "withdrawal",
      "outputs": [
        {
          "internalType": "bool",
          "name": "",
          "type": "bool"
        }
      ],
      "stateMutability": "nonpayable",
      "type": "function"
    }
  ],
  "bytecode": "0x6080604052600380546001600160481b0319166812000000000001518017905534801561002b57600080fd5b50604051611e62380380611e6283398101604081905261004a9161006f565b600180546001600160a01b0319166001600160a01b039290921691909117905561009f565b60006020828403121561008157600080fd5b81516001600160a01b038116811461009857600080fd5b9392505050565b611db4806100ae6000396000f3fe608060405234801561001057600080fd5b50600436106101515760003560e01c80639ec6253b116100cd578063c31ace3b11610081578063e5949b5d11610066578063e5949b5d14610393578063fa540801146103b8578063fc0c546a1461041957600080fd5b8063c31ace3b1461030d578063d8d561c41461038057600080fd5b8063a9059cbb116100b2578063a9059cbb146102d4578063b13f2392146102e7578063b6b55f25146102fa57600080fd5b80639ec6253b14610290578063a7bb5803146102a357600080fd5b80634339179f11610124578063835fc6ca11610109578063835fc6ca1461023f57806397aba7f91461025257806397dc4a131461027d57600080fd5b80634339179f146101f357806370a082311461021657600080fd5b80630a0e5c9d14610156578063313ce567146101875780633a3c74eb146101b25780634126ee1f146101d2575b600080fd5b61016961016436600461199c565b61042c565b60405167ffffffffffffffff90911681526020015b60405180910390f35b6003546101a09068010000000000000000900460ff1681565b60405160ff909116815260200161017e565b6101c56101c03660046119c6565b61079f565b60405161017e91906119e8565b6101e56101e0366004611a4e565b61083f565b60405190815260200161017e565b610206610201366004611b0c565b610b2c565b604051901515815260200161017e565b6101e56102243660046119c6565b6001600160a01b031660009081526020819052604090205490565b61020661024d366004611b74565b610efc565b610265610260366004611b8d565b611018565b6040516001600160a01b03909116815260200161017e565b6101e561028b366004611b74565b611097565b61016961029e366004611a4e565b6110d3565b6102b66102b1366004611bd4565b6112dc565b60408051938452602084019290925260ff169082015260600161017e565b6102066102e236600461199c565b611350565b6102066102f5366004611c11565b611546565b610206610308366004611b74565b61177a565b6101e561031b366004611c2d565b6040517fffffffffffffffff00000000000000000000000000000000000000000000000060c085811b821660208401526028830185905283901b1660488201526000906050016040516020818303038152906040528051906020012090509392505050565b6101c561038e3660046119c6565b61189e565b6103a66103a1366004611b74565b611912565b60405161017e96959493929190611c7f565b6101e56103c6366004611b74565b6040517f19457468657265756d205369676e6564204d6573736167653a0a3332000000006020820152603c8101829052600090605c01604051602081830303815290604052805190602001209050919050565b600154610265906001600160a01b031681565b33600090815260208190526040812054808311156104a55760405162461bcd60e51b815260206004820152602b60248201527f796f7520646f206e6f742068617665207468652062616c616e636520746f206660448201526a1d5b990818da185b9b995b60aa1b60648201526084015b60405180910390fd5b33600090815260208181526040808320868503905560025481519283019091529181526040805160c0810182523381526001600160a01b038881166020830190815292820188815260016060840181815260808501879052600060a08601819052600480548085018255915285517f8a35acfbc15ff81a39ae7d344fd709f28e8600b4aa8c65c6b64bfe7fe36bd19b600690920291820180549187167fffffffffffffffffffffffff000000000000000000000000000000000000000092831617815597517f8a35acfbc15ff81a39ae7d344fd709f28e8600b4aa8c65c6b64bfe7fe36bd19c830180549190971691161790945591517f8a35acfbc15ff81a39ae7d344fd709f28e8600b4aa8c65c6b64bfe7fe36bd19d84015590517f8a35acfbc15ff81a39ae7d344fd709f28e8600b4aa8c65c6b64bfe7fe36bd19e9092018054939493909160ff199091169083600281111561060557610605611c69565b021790555060808201518160040160008201518160000155505060a08201518160050160006101000a81548167ffffffffffffffff021916908367ffffffffffffffff160217905550505060056000336001600160a01b03166001600160a01b031681526020019081526020016000208290806001815401808255809150506001900390600052602060002090600491828204019190066008029091909190916101000a81548167ffffffffffffffff021916908367ffffffffffffffff16021790555060066000876001600160a01b03166001600160a01b031681526020019081526020016000208290806001815401808255809150506001900390600052602060002090600491828204019190066008029091909190916101000a81548167ffffffffffffffff021916908367ffffffffffffffff160217905550610750600280546001019055565b8167ffffffffffffffff167fa5915433a96000c5e16c635b6acf2e0f8efc24639924f87e8925edeae086edc98660405161078c91815260200190565b60405180910390a2509150505b92915050565b6001600160a01b03811660009081526006602090815260409182902080548351818402810184019094528084526060939283018282801561083357602002820191906000526020600020906000905b82829054906101000a900467ffffffffffffffff1667ffffffffffffffff16815260200190600801906020826007010492830192600103820291508084116107ee5790505b50505050509050919050565b600081600260048267ffffffffffffffff168154811061086157610861611ce2565b600091825260209091206003600690920201015460ff16600281111561088957610889611c69565b146108d65760405162461bcd60e51b815260206004820152601560248201527f4368616e6e656c206973206e6f74206c6f636b65640000000000000000000000604482015260640161049c565b82336001600160a01b031660048267ffffffffffffffff16815481106108fe576108fe611ce2565b60009182526020909120600690910201546001600160a01b0316146109655760405162461bcd60e51b815260206004820152601e60248201527f596f7520617265206e6f7420746865206368616e6e656c2073656e6465720000604482015260640161049c565b600060048567ffffffffffffffff168154811061098457610984611ce2565b600091825260209091206005600690920201015460035467ffffffffffffffff91821692506109b4911682611d0e565b67ffffffffffffffff1642106109c957600080fd5b600060048667ffffffffffffffff16815481106109e8576109e8611ce2565b9060005260206000209060060201600201549050600060048767ffffffffffffffff1681548110610a1b57610a1b611ce2565b600091825260208083206002600690930201919091019290925533815290819052604081208054839290610a50908490611d36565b92505081905550600160048767ffffffffffffffff1681548110610a7657610a76611ce2565b60009182526020909120600360069092020101805460ff19166001836002811115610aa357610aa3611c69565b02179055508567ffffffffffffffff167ff9f0c87d3dfd5bbe44a93c8a33fb3edead935e79216f687d0d4b2c23b6899cbf60048867ffffffffffffffff1681548110610af157610af1611ce2565b600091825260209182902060069091020154604080516001600160a01b0390921682529181018590520160405180910390a295945050505050565b600084336001600160a01b031660048267ffffffffffffffff1681548110610b5657610b56611ce2565b60009182526020909120600160069092020101546001600160a01b031614610be65760405162461bcd60e51b815260206004820152602160248201527f596f7520617265206e6f7420746865206368616e6e656c20726563697069656e60448201527f7400000000000000000000000000000000000000000000000000000000000000606482015260840161049c565b610c1b60048767ffffffffffffffff1681548110610c0657610c06611ce2565b90600052602060002090600602016004015490565b8467ffffffffffffffff1614610c3057600080fd5b60048667ffffffffffffffff1681548110610c4d57610c4d611ce2565b906000526020600020906006020160020154851115610c6b57600080fd5b600060048767ffffffffffffffff1681548110610c8a57610c8a611ce2565b600091825260208220600690910201546001600160a01b03169150610d108888886040517fffffffffffffffff00000000000000000000000000000000000000000000000060c085811b821660208401526028830185905283901b1660488201526000906050016040516020818303038152906040528051906020012090509392505050565b90506000610d6b826040517f19457468657265756d205369676e6564204d6573736167653a0a3332000000006020820152603c8101829052600090605c01604051602081830303815290604052805190602001209050919050565b9050826001600160a01b0316610d818288611018565b6001600160a01b031614610d9457600080fd5b8760048a67ffffffffffffffff1681548110610db257610db2611ce2565b90600052602060002090600602016002016000828254610dd29190611d49565b92505081905550610e1360048a67ffffffffffffffff1681548110610df957610df9611ce2565b906000526020600020906006020160040180546001019055565b8760008060048c67ffffffffffffffff1681548110610e3457610e34611ce2565b60009182526020808320600160069093020191909101546001600160a01b0316835282019290925260400181208054909190610e71908490611d36565b90915550506004805467ffffffffffffffff8b16917ff9f0c87d3dfd5bbe44a93c8a33fb3edead935e79216f687d0d4b2c23b6899cbf9183908110610eb857610eb8611ce2565b600091825260209182902060069091020160010154604080516001600160a01b0390921682529181018c90520160405180910390a250600198975050505050505050565b3360008181526020819052604081205490919080841115610f1c57600080fd5b6001600160a01b0382811660008181526020819052604090819020878503905560015490517fa9059cbb0000000000000000000000000000000000000000000000000000000081526004810192909252602482018790529091169063a9059cbb906044016020604051808303816000875af1158015610f9f573d6000803e3d6000fd5b505050506040513d601f19601f82011682018060405250810190610fc39190611d5c565b50604080516001600160a01b0384168152600060208201529081018590527fddf252ad1be2c89b69c2b068fc378daa952ba7f163c4a11628f55a4df523b3ef9060600160405180910390a15060019392505050565b600080600080611027856112dc565b6040805160008152602081018083528b905260ff8316918101919091526060810184905260808101839052929550909350915060019060a0016020604051602081039080840390855afa158015611082573d6000803e3d6000fd5b5050604051601f190151979650505050505050565b336000908152602081905260408120805483919083906110b8908490611d36565b90915550503360009081526020819052604090205492915050565b600081600160048267ffffffffffffffff16815481106110f5576110f5611ce2565b600091825260209091206003600690920201015460ff16600281111561111d5761111d611c69565b1461116a5760405162461bcd60e51b815260206004820152601360248201527f4368616e6e656c206973206e6f74206f70656e00000000000000000000000000604482015260640161049c565b82336001600160a01b031660048267ffffffffffffffff168154811061119257611192611ce2565b60009182526020909120600690910201546001600160a01b0316146111f95760405162461bcd60e51b815260206004820152601e60248201527f596f7520617265206e6f7420746865206368616e6e656c2073656e6465720000604482015260640161049c565b600260048567ffffffffffffffff168154811061121857611218611ce2565b60009182526020909120600360069092020101805460ff1916600183600281111561124557611245611c69565b021790555060004290508060048667ffffffffffffffff168154811061126d5761126d611ce2565b6000918252602091829020600690910201600501805467ffffffffffffffff191667ffffffffffffffff9384161790556040518383168152918716917f4e237f8cd7965d0e48a5c710d3176908de6a8f34dc03ad0923f7dd445b9ef5d7910160405180910390a2949350505050565b600080600083516041146113325760405162461bcd60e51b815260206004820152601860248201527f696e76616c6964207369676e6174757265206c656e6774680000000000000000604482015260640161049c565b50505060208101516040820151606090920151909260009190911a90565b600033806113c65760405162461bcd60e51b815260206004820152602560248201527f45524332303a207472616e736665722066726f6d20746865207a65726f20616460448201527f6472657373000000000000000000000000000000000000000000000000000000606482015260840161049c565b6001600160a01b0384166114425760405162461bcd60e51b815260206004820152602360248201527f45524332303a207472616e7366657220746f20746865207a65726f206164647260448201527f6573730000000000000000000000000000000000000000000000000000000000606482015260840161049c565b6001600160a01b038116600090815260208190526040902054838110156114d15760405162461bcd60e51b815260206004820152602660248201527f45524332303a207472616e7366657220616d6f756e742065786365656473206260448201527f616c616e63650000000000000000000000000000000000000000000000000000606482015260840161049c565b6001600160a01b0382811660008181526020818152604080832089870390559389168083529184902080548901905583519283528201529081018590527fddf252ad1be2c89b69c2b068fc378daa952ba7f163c4a11628f55a4df523b3ef9060600160405180910390a1506001949350505050565b600082600160048267ffffffffffffffff168154811061156857611568611ce2565b600091825260209091206003600690920201015460ff16600281111561159057611590611c69565b146115dd5760405162461bcd60e51b815260206004820152601360248201527f4368616e6e656c206973206e6f74206f70656e00000000000000000000000000604482015260640161049c565b83336001600160a01b031660048267ffffffffffffffff168154811061160557611605611ce2565b60009182526020909120600690910201546001600160a01b03161461166c5760405162461bcd60e51b815260206004820152601e60248201527f596f7520617265206e6f7420746865206368616e6e656c2073656e6465720000604482015260640161049c565b33600090815260208190526040902054808511156116e05760405162461bcd60e51b815260206004820152602b60248201527f796f7520646f206e6f742068617665207468652062616c616e636520746f206660448201526a1d5b990818da185b9b995b60aa1b606482015260840161049c565b33600090815260208190526040902085820390556004805486919067ffffffffffffffff891690811061171557611715611ce2565b6000918252602091829020600260069092020101805490920190915560405186815267ffffffffffffffff8816917fa5915433a96000c5e16c635b6acf2e0f8efc24639924f87e8925edeae086edc9910160405180910390a250600195945050505050565b6001546040517f23b872dd00000000000000000000000000000000000000000000000000000000815233600482018190523060248301526044820184905260009290916001600160a01b03909116906323b872dd906064016020604051808303816000875af11580156117f1573d6000803e3d6000fd5b505050506040513d601f19601f820116820180604052508101906118159190611d5c565b61181e57600080fd5b6001600160a01b03811660009081526020819052604081208054859290611846908490611d36565b909155505060408051600081526001600160a01b03831660208201529081018490527fddf252ad1be2c89b69c2b068fc378daa952ba7f163c4a11628f55a4df523b3ef9060600160405180910390a150600192915050565b6001600160a01b038116600090815260056020908152604091829020805483518184028101840190945280845260609392830182828015610833576000918252602091829020805467ffffffffffffffff1684529082028301929091600891018084116107ee575094979650505050505050565b6004818154811061192257600080fd5b60009182526020918290206006909102018054600182015460028301546003840154604080519687019052600485015486526005909401546001600160a01b0393841696509190921693919260ff16919067ffffffffffffffff1686565b80356001600160a01b038116811461199757600080fd5b919050565b600080604083850312156119af57600080fd5b6119b883611980565b946020939093013593505050565b6000602082840312156119d857600080fd5b6119e182611980565b9392505050565b6020808252825182820181905260009190848201906040850190845b81811015611a2a57835167ffffffffffffffff1683529284019291840191600101611a04565b50909695505050505050565b803567ffffffffffffffff8116811461199757600080fd5b600060208284031215611a6057600080fd5b6119e182611a36565b634e487b7160e01b600052604160045260246000fd5b600082601f830112611a9057600080fd5b813567ffffffffffffffff80821115611aab57611aab611a69565b604051601f8301601f19908116603f01168101908282118183101715611ad357611ad3611a69565b81604052838152866020858801011115611aec57600080fd5b836020870160208301376000602085830101528094505050505092915050565b60008060008060808587031215611b2257600080fd5b611b2b85611a36565b935060208501359250611b4060408601611a36565b9150606085013567ffffffffffffffff811115611b5c57600080fd5b611b6887828801611a7f565b91505092959194509250565b600060208284031215611b8657600080fd5b5035919050565b60008060408385031215611ba057600080fd5b82359150602083013567ffffffffffffffff811115611bbe57600080fd5b611bca85828601611a7f565b9150509250929050565b600060208284031215611be657600080fd5b813567ffffffffffffffff811115611bfd57600080fd5b611c0984828501611a7f565b949350505050565b60008060408385031215611c2457600080fd5b6119b883611a36565b600080600060608486031215611c4257600080fd5b611c4b84611a36565b925060208401359150611c6060408501611a36565b90509250925092565b634e487b7160e01b600052602160045260246000fd5b6001600160a01b038781168252861660208201526040810185905260c0810160038510611cbc57634e487b7160e01b600052602160045260246000fd5b60608201949094529151608083015267ffffffffffffffff1660a0909101529392505050565b634e487b7160e01b600052603260045260246000fd5b634e487b7160e01b600052601160045260246000fd5b67ffffffffffffffff818116838216019080821115611d2f57611d2f611cf8565b5092915050565b8082018082111561079957610799611cf8565b8181038181111561079957610799611cf8565b600060208284031215611d6e57600080fd5b815180151581146119e157600080fdfea26469706673582212207392797909ea63a860544bf134695b8b172b8471f1f9fd2baa57ae7f3926621b64736f6c63430008110033",
  "linkReferences": {},
  "deployedLinkReferences": {}
}