{
  "_format": "hh-sol-artifact-1",
  "contractName": "Channel",
  "sourceName": "contracts/channel.sol",
  "abi": [
    {
      "inputs": [
        {
          "internalType": "string",
          "name": "name",
          "type": "string"
        },
        {
          "internalType": "address",
          "name": "_token",
          "type": "address"
        }
      ],
      "stateMutability": "nonpayable",
      "type": "constructor"
    },
    {
      "anonymous": false,
      "inputs": [
        {
          "indexed": true,
          "internalType": "address",
          "name": "from",
          "type": "address"
        },
        {
          "indexed": true,
          "internalType": "address",
          "name": "to",
          "type": "address"
        }
      ],
      "name": "Collect",
      "type": "event"
    },
    {
      "anonymous": false,
      "inputs": [
        {
          "indexed": true,
          "internalType": "address",
          "name": "from",
          "type": "address"
        },
        {
          "indexed": true,
          "internalType": "address",
          "name": "to",
          "type": "address"
        },
        {
          "indexed": false,
          "internalType": "uint64",
          "name": "time",
          "type": "uint64"
        }
      ],
      "name": "Lock",
      "type": "event"
    },
    {
      "anonymous": false,
      "inputs": [
        {
          "indexed": true,
          "internalType": "address",
          "name": "from",
          "type": "address"
        },
        {
          "indexed": true,
          "internalType": "address",
          "name": "to",
          "type": "address"
        }
      ],
      "name": "NewChannel",
      "type": "event"
    },
    {
      "inputs": [
        {
          "components": [
            {
              "internalType": "string",
              "name": "name",
              "type": "string"
            },
            {
              "internalType": "string",
              "name": "version",
              "type": "string"
            },
            {
              "internalType": "uint256",
              "name": "chainId",
              "type": "uint256"
            },
            {
              "internalType": "address",
              "name": "verifyingContract",
              "type": "address"
            }
          ],
          "internalType": "struct EIP712Domain",
          "name": "_input",
          "type": "tuple"
        }
      ],
      "name": "GET_EIP712DOMAIN_PACKETHASH",
      "outputs": [
        {
          "internalType": "bytes32",
          "name": "",
          "type": "bytes32"
        }
      ],
      "stateMutability": "pure",
      "type": "function"
    },
    {
      "inputs": [
        {
          "components": [
            {
              "components": [
                {
                  "internalType": "address",
                  "name": "to",
                  "type": "address"
                },
                {
                  "internalType": "uint256",
                  "name": "total",
                  "type": "uint256"
                },
                {
                  "internalType": "uint256",
                  "name": "round",
                  "type": "uint256"
                }
              ],
              "internalType": "struct Transaction",
              "name": "transaction",
              "type": "tuple"
            },
            {
              "internalType": "bytes",
              "name": "signature",
              "type": "bytes"
            }
          ],
          "internalType": "struct SignedTransaction",
          "name": "_input",
          "type": "tuple"
        }
      ],
      "name": "GET_SIGNEDTRANSACTION_PACKETHASH",
      "outputs": [
        {
          "internalType": "bytes32",
          "name": "",
          "type": "bytes32"
        }
      ],
      "stateMutability": "pure",
      "type": "function"
    },
    {
      "inputs": [
        {
          "components": [
            {
              "internalType": "address",
              "name": "to",
              "type": "address"
            },
            {
              "internalType": "uint256",
              "name": "total",
              "type": "uint256"
            },
            {
              "internalType": "uint256",
              "name": "round",
              "type": "uint256"
            }
          ],
          "internalType": "struct Transaction",
          "name": "_input",
          "type": "tuple"
        }
      ],
      "name": "GET_TRANSACTION_PACKETHASH",
      "outputs": [
        {
          "internalType": "bytes32",
          "name": "",
          "type": "bytes32"
        }
      ],
      "stateMutability": "pure",
      "type": "function"
    },
    {
      "inputs": [
        {
          "internalType": "address",
          "name": "account",
          "type": "address"
        }
      ],
      "name": "balanceOf",
      "outputs": [
        {
          "internalType": "uint256",
          "name": "",
          "type": "uint256"
        }
      ],
      "stateMutability": "view",
      "type": "function"
    },
    {
      "inputs": [],
      "name": "decimals",
      "outputs": [
        {
          "internalType": "uint8",
          "name": "",
          "type": "uint8"
        }
      ],
      "stateMutability": "view",
      "type": "function"
    },
    {
      "inputs": [
        {
          "internalType": "uint256",
          "name": "amount",
          "type": "uint256"
        }
      ],
      "name": "deposit",
      "outputs": [
        {
          "internalType": "bool",
          "name": "",
          "type": "bool"
        }
      ],
      "stateMutability": "nonpayable",
      "type": "function"
    },
    {
      "inputs": [],
      "name": "domainHash",
      "outputs": [
        {
          "internalType": "bytes32",
          "name": "",
          "type": "bytes32"
        }
      ],
      "stateMutability": "view",
      "type": "function"
    },
    {
      "inputs": [
        {
          "internalType": "address",
          "name": "to",
          "type": "address"
        },
        {
          "internalType": "uint256",
          "name": "value",
          "type": "uint256"
        }
      ],
      "name": "fundChannel",
      "outputs": [],
      "stateMutability": "nonpayable",
      "type": "function"
    },
    {
      "inputs": [
        {
          "internalType": "address",
          "name": "from",
          "type": "address"
        },
        {
          "internalType": "address",
          "name": "to",
          "type": "address"
        }
      ],
      "name": "getChannelByAddresses",
      "outputs": [
        {
          "components": [
            {
              "internalType": "uint256",
              "name": "value",
              "type": "uint256"
            },
            {
              "internalType": "enum Channel.State",
              "name": "state",
              "type": "uint8"
            },
            {
              "components": [
                {
                  "internalType": "uint256",
                  "name": "_value",
                  "type": "uint256"
                }
              ],
              "internalType": "struct Counters.Counter",
              "name": "round",
              "type": "tuple"
            },
            {
              "internalType": "uint64",
              "name": "lockTime",
              "type": "uint64"
            }
          ],
          "internalType": "struct Channel.ChannelState",
          "name": "",
          "type": "tuple"
        }
      ],
      "stateMutability": "view",
      "type": "function"
    },
    {
      "inputs": [
        {
          "internalType": "string",
          "name": "contractName",
          "type": "string"
        },
        {
          "internalType": "string",
          "name": "version",
          "type": "string"
        },
        {
          "internalType": "uint256",
          "name": "chainId",
          "type": "uint256"
        },
        {
          "internalType": "address",
          "name": "verifyingContract",
          "type": "address"
        }
      ],
      "name": "getEIP712DomainHash",
      "outputs": [
        {
          "internalType": "bytes32",
          "name": "",
          "type": "bytes32"
        }
      ],
      "stateMutability": "pure",
      "type": "function"
    },
    {
      "inputs": [
        {
          "components": [
            {
              "internalType": "address",
              "name": "to",
              "type": "address"
            },
            {
              "internalType": "uint256",
              "name": "total",
              "type": "uint256"
            },
            {
              "internalType": "uint256",
              "name": "round",
              "type": "uint256"
            }
          ],
          "internalType": "struct Transaction",
          "name": "transaction",
          "type": "tuple"
        }
      ],
      "name": "getTransactionTypedDataHash",
      "outputs": [
        {
          "internalType": "bytes32",
          "name": "",
          "type": "bytes32"
        }
      ],
      "stateMutability": "view",
      "type": "function"
    },
    {
      "inputs": [
        {
          "internalType": "address",
          "name": "from",
          "type": "address"
        },
        {
          "internalType": "address",
          "name": "to",
          "type": "address"
        },
        {
          "internalType": "uint256",
          "name": "amount",
          "type": "uint256"
        },
        {
          "internalType": "uint256",
          "name": "round",
          "type": "uint256"
        },
        {
          "internalType": "bytes",
          "name": "sig",
          "type": "bytes"
        }
      ],
      "name": "reciverCollectPayment",
      "outputs": [],
      "stateMutability": "nonpayable",
      "type": "function"
    },
    {
      "inputs": [
        {
          "internalType": "address",
          "name": "to",
          "type": "address"
        }
      ],
      "name": "senderLock",
      "outputs": [],
      "stateMutability": "nonpayable",
      "type": "function"
    },
    {
      "inputs": [
        {
          "internalType": "address",
          "name": "to",
          "type": "address"
        }
      ],
      "name": "senderUnlock",
      "outputs": [],
      "stateMutability": "nonpayable",
      "type": "function"
    },
    {
      "inputs": [
        {
          "internalType": "address",
          "name": "to",
          "type": "address"
        }
      ],
      "name": "senderWithdrawal",
      "outputs": [],
      "stateMutability": "nonpayable",
      "type": "function"
    },
    {
      "inputs": [],
      "name": "token",
      "outputs": [
        {
          "internalType": "contract IERC20",
          "name": "",
          "type": "address"
        }
      ],
      "stateMutability": "view",
      "type": "function"
    },
    {
      "inputs": [
        {
          "internalType": "address",
          "name": "to",
          "type": "address"
        },
        {
          "internalType": "uint256",
          "name": "amount",
          "type": "uint256"
        }
      ],
      "name": "transfer",
      "outputs": [
        {
          "internalType": "bool",
          "name": "",
          "type": "bool"
        }
      ],
      "stateMutability": "nonpayable",
      "type": "function"
    },
    {
      "inputs": [
        {
          "internalType": "address",
          "name": "sender",
          "type": "address"
        },
        {
          "internalType": "address",
          "name": "reciver",
          "type": "address"
        },
        {
          "internalType": "uint256",
          "name": "amount",
          "type": "uint256"
        },
        {
          "internalType": "uint256",
          "name": "round",
          "type": "uint256"
        },
        {
          "internalType": "bytes",
          "name": "signature",
          "type": "bytes"
        }
      ],
      "name": "verify",
      "outputs": [
        {
          "internalType": "bool",
          "name": "",
          "type": "bool"
        }
      ],
      "stateMutability": "view",
      "type": "function"
    },
    {
      "inputs": [
        {
          "components": [
            {
              "components": [
                {
                  "internalType": "address",
                  "name": "to",
                  "type": "address"
                },
                {
                  "internalType": "uint256",
                  "name": "total",
                  "type": "uint256"
                },
                {
                  "internalType": "uint256",
                  "name": "round",
                  "type": "uint256"
                }
              ],
              "internalType": "struct Transaction",
              "name": "transaction",
              "type": "tuple"
            },
            {
              "internalType": "bytes",
              "name": "signature",
              "type": "bytes"
            }
          ],
          "internalType": "struct SignedTransaction",
          "name": "signedTransaction",
          "type": "tuple"
        }
      ],
      "name": "verifySignedTransaction",
      "outputs": [
        {
          "internalType": "address",
          "name": "",
          "type": "address"
        }
      ],
      "stateMutability": "view",
      "type": "function"
    },
    {
      "inputs": [
        {
          "internalType": "uint256",
          "name": "amount",
          "type": "uint256"
        }
      ],
      "name": "withdrawal",
      "outputs": [
        {
          "internalType": "bool",
          "name": "",
          "type": "bool"
        }
      ],
      "stateMutability": "nonpayable",
      "type": "function"
    }
  ],
  "bytecode": "0x60a060405260018054600160a01b600160e81b0319167c12000000000001518000000000000000000000000000000000000000001790553480156200004357600080fd5b5060405162001ac138038062001ac1833981016040819052620000669162000158565b600180546001600160a01b0319166001600160a01b038316178155604080518082018252918252600d60fa1b60209283015283518483012081517f8b73c3c69bb8fe3d512ecc4cf759cc79239f7b179b0ffacaa9a75d522b39400f81850152808301919091527f13600b294191fc92924bb3ce4b969c1e7e2bab8f4c93c3fc6d0a51733df3c06060608201524660808201523060a0808301919091528251808303909101815260c0909101909152805191012060805250620002409050565b634e487b7160e01b600052604160045260246000fd5b80516001600160a01b03811681146200015357600080fd5b919050565b600080604083850312156200016c57600080fd5b82516001600160401b03808211156200018457600080fd5b818501915085601f8301126200019957600080fd5b815181811115620001ae57620001ae62000125565b604051601f8201601f19908116603f01168101908382118183101715620001d957620001d962000125565b81604052828152602093508884848701011115620001f657600080fd5b600091505b828210156200021a5784820184015181830185015290830190620001fb565b6000848483010152809650505050620002358186016200013b565b925050509250929050565b60805161185e62000263600039600081816103cf0152610530015261185e6000f3fe608060405234801561001057600080fd5b506004361061016c5760003560e01c8063835fc6ca116100cd578063c72f75cf11610081578063d327c1eb11610066578063d327c1eb14610340578063dfe86ac5146103ca578063fc0c546a146103f157600080fd5b8063c72f75cf1461031a578063cffc18eb1461032d57600080fd5b8063a9059cbb116100b2578063a9059cbb146102e1578063b6b55f25146102f4578063c6fd6e1f1461030757600080fd5b8063835fc6ca146102ab57806398bc186a146102ce57600080fd5b80635c0b5ec4116101245780636991432411610109578063699143241461024f57806370a08231146102625780637f968ac71461028b57600080fd5b80635c0b5ec4146102115780635c87beb41461023c57600080fd5b8063346be4a711610155578063346be4a7146101ca5780634cc3bf6f146101eb57806359b84a5d146101fe57600080fd5b80631360569d14610171578063313ce56714610186575b600080fd5b61018461017f366004611276565b610404565b005b6001546101b3907c0100000000000000000000000000000000000000000000000000000000900460ff1681565b60405160ff90911681526020015b60405180910390f35b6101dd6101d8366004611338565b61052b565b6040519081526020016101c1565b6101846101f9366004611276565b6105b1565b6101dd61020c366004611338565b61072e565b61022461021f3660046113e1565b610793565b6040516001600160a01b0390911681526020016101c1565b61018461024a366004611476565b6107bd565b6101dd61025d3660046113e1565b6109c8565b6101dd610270366004611276565b6001600160a01b031660009081526020819052604090205490565b61029e6102993660046114a0565b610a25565b6040516101c191906114e9565b6102be6102b9366004611541565b610ac5565b60405190151581526020016101c1565b6101dd6102dc36600461155a565b610b97565b6102be6102ef366004611476565b610be3565b6102be610302366004611541565b610d9b565b610184610315366004611276565b610e75565b610184610328366004611606565b610f38565b6102be61033b366004611606565b6110e9565b6101dd61034e366004611678565b8351602094850120835193850193909320604080517f8b73c3c69bb8fe3d512ecc4cf759cc79239f7b179b0ffacaa9a75d522b39400f8188015280820195909552606085019190915260808401929092526001600160a01b031660a0808401919091528151808403909101815260c09092019052805191012090565b6101dd7f000000000000000000000000000000000000000000000000000000000000000081565b600154610224906001600160a01b031681565b338160016001600160a01b03808416600090815260026020818152604080842094871684529390529190206001015460ff1690811115610446576104466114d3565b146104985760405162461bcd60e51b815260206004820152601360248201527f4368616e6e656c206973206e6f74206f70656e0000000000000000000000000060448201526064015b60405180910390fd5b3360008181526002602081815260408084206001600160a01b0389168086529083529381902060018101805460ff19169094179093556003909201805467ffffffffffffffff19164267ffffffffffffffff8116918217909255835190815292519094927ffc045bfcf0d75e572946e42f3b53bac7ec2a832f291f8cce267876742d820ebd92908290030190a350505050565b6000807f00000000000000000000000000000000000000000000000000000000000000006105588461072e565b6040517f19010000000000000000000000000000000000000000000000000000000000006020820152602281019290925260428201526062015b60408051601f1981840301815291905280516020909101209392505050565b3360008181526002602081815260408084206001600160a01b03871685529091529091206001015483919060ff16818111156105ef576105ef6114d3565b1461063c5760405162461bcd60e51b815260206004820152601560248201527f4368616e6e656c206973206e6f74206c6f636b65640000000000000000000000604482015260640161048f565b3360009081526002602090815260408083206001600160a01b038716845290915290206003015460015467ffffffffffffffff9182169161069691740100000000000000000000000000000000000000009004168261170c565b67ffffffffffffffff1642106106ab57600080fd5b3360008181526002602090815260408083206001600160a01b0389168452825280832080549084905593835290829052812080548392906106ed908490611734565b90915550503360009081526002602090815260408083206001600160a01b038916845290915290206001908101805460ff1916828002179055505050505050565b6000807fffb4059c2d77d1a3df5d17fa1927731e28d6b4271533f6090daf3ee82973c9a483600001518460200151856040015160405160200161059294939291909384526001600160a01b039290921660208401526040830152606082015260800190565b8051600090816107a28261052b565b905060006107b4828660200151611146565b95945050505050565b33600081815260208190526040902054808311156108435760405162461bcd60e51b815260206004820152602b60248201527f796f7520646f206e6f742068617665207468652062616c616e636520746f206660448201527f756e64206368616e6e656c000000000000000000000000000000000000000000606482015260840161048f565b61084d8382611747565b336000908152602081815260408083209390935560028082528383206001600160a01b038916845290915291812060010154909160ff90911690811115610896576108966114d3565b036109895760408051602080820183526000808352835160808101855287815260018184018181528287018690526060830184905233845260028086528785206001600160a01b038d1686529095529590922081518155945185830180549596929592949193909260ff1916918490811115610914576109146114d3565b02179055506040828101515160028301556060909201516003909101805467ffffffffffffffff191667ffffffffffffffff909216919091179055516001600160a01b0386169033907f4461bdca5b3b2f013ffe670d2bb7a815208bca274014437644ec52dd5240a46a90600090a3506109c2565b3360009081526002602090815260408083206001600160a01b0388168452909152812080548592906109bc908490611734565b90915550505b50505050565b6000807fe5250757dab087c5356b11360acd2c2fd3fe0e822624dfe55bc5ce6ceede44d46109f9846000015161072e565b602080860151805190820120604051610592949392019283526020830191909152604082015260600190565b610a2d61121d565b6001600160a01b038084166000908152600260208181526040808420948716845293815291839020835160808101909452805484526001810154909284019160ff90911690811115610a8157610a816114d3565b6002811115610a9257610a926114d3565b815260408051602081810183526002850154825283015260039092015467ffffffffffffffff1691015290505b92915050565b3360008181526020819052604081205490919080841115610ae557600080fd5b6001600160a01b0382811660008181526020819052604090819020878503905560015490517fa9059cbb0000000000000000000000000000000000000000000000000000000081526004810192909252602482018790529091169063a9059cbb906044016020604051808303816000875af1158015610b68573d6000803e3d6000fd5b505050506040513d601f19601f82011682018060405250810190610b8c919061175a565b506001949350505050565b6000807f8b73c3c69bb8fe3d512ecc4cf759cc79239f7b179b0ffacaa9a75d522b39400f83600001518460200151856040015186606001516040516020016105929594939291906117c2565b60003380610c595760405162461bcd60e51b815260206004820152602560248201527f45524332303a207472616e736665722066726f6d20746865207a65726f20616460448201527f6472657373000000000000000000000000000000000000000000000000000000606482015260840161048f565b6001600160a01b038416610cd55760405162461bcd60e51b815260206004820152602360248201527f45524332303a207472616e7366657220746f20746865207a65726f206164647260448201527f6573730000000000000000000000000000000000000000000000000000000000606482015260840161048f565b6001600160a01b03811660009081526020819052604090205483811015610d645760405162461bcd60e51b815260206004820152602660248201527f45524332303a207472616e7366657220616d6f756e742065786365656473206260448201527f616c616e63650000000000000000000000000000000000000000000000000000606482015260840161048f565b6001600160a01b03918216600090815260208190526040808220928690039092559185168252902080548301905550600192915050565b6001546040517f23b872dd00000000000000000000000000000000000000000000000000000000815233600482018190523060248301526044820184905260009290916001600160a01b03909116906323b872dd906064016020604051808303816000875af1158015610e12573d6000803e3d6000fd5b505050506040513d601f19601f82011682018060405250810190610e36919061175a565b610e3f57600080fd5b6001600160a01b03811660009081526020819052604081208054859290610e67908490611734565b909155506001949350505050565b3360008181526002602081815260408084206001600160a01b03871685529091529091206001015483919060ff1681811115610eb357610eb36114d3565b14610f005760405162461bcd60e51b815260206004820152601560248201527f4368616e6e656c206973206e6f74206c6f636b65640000000000000000000000604482015260640161048f565b50503360009081526002602090815260408083206001600160a01b03949094168352929052206001908101805460ff19169091179055565b6001600160a01b0384163314610fb65760405162461bcd60e51b815260206004820152602560248201527f796f75206e65656420746f20626520746865207265636976657220746f20636560448201527f6c6c656374000000000000000000000000000000000000000000000000000000606482015260840161048f565b6001600160a01b038516600090815260026020818152604080842033855290915290912001548214610fe757600080fd5b6001600160a01b038516600090815260026020908152604080832033845290915290205483111561101757600080fd5b61102485858585856110e9565b61102d57600080fd5b6001600160a01b038516600090815260026020908152604080832033845290915281208054859290611060908490611747565b90915550506001600160a01b0385166000908152600260208181526040808420338552825280842090920180546001019055829052812080548592906110a7908490611734565b909155505060405133906001600160a01b038716907f1a53d47e55e281dce8c868385a5949469563879e7b9e14a82913f0474975213490600090a35050505050565b60008061112c604051806040016040528060405180606001604052808a6001600160a01b0316815260200189815260200188815250815260200185815250610793565b6001600160a01b0388811691161491505095945050505050565b60008060008084516041146111615760009350505050610abf565b50505060208201516040830151606084015160001a601b81101561118d5761118a601b8261180f565b90505b8060ff16601b141580156111a557508060ff16601c14155b156111b65760009350505050610abf565b60408051600081526020810180835288905260ff831691810191909152606081018490526080810183905260019060a0016020604051602081039080840390855afa158015611209573d6000803e3d6000fd5b505050602060405103519350505050610abf565b604080516080810190915260008082526020820190815260200161124d6040518060200160405280600081525090565b8152600060209091015290565b80356001600160a01b038116811461127157600080fd5b919050565b60006020828403121561128857600080fd5b6112918261125a565b9392505050565b634e487b7160e01b600052604160045260246000fd5b6040516080810167ffffffffffffffff811182821017156112d1576112d1611298565b60405290565b6000606082840312156112e957600080fd5b6040516060810181811067ffffffffffffffff8211171561130c5761130c611298565b60405290508061131b8361125a565b815260208301356020820152604083013560408201525092915050565b60006060828403121561134a57600080fd5b61129183836112d7565b600082601f83011261136557600080fd5b813567ffffffffffffffff8082111561138057611380611298565b604051601f8301601f19908116603f011681019082821181831017156113a8576113a8611298565b816040528381528660208588010111156113c157600080fd5b836020870160208301376000602085830101528094505050505092915050565b6000602082840312156113f357600080fd5b813567ffffffffffffffff8082111561140b57600080fd5b908301906080828603121561141f57600080fd5b60405160408101818110838211171561143a5761143a611298565b60405261144786846112d7565b815260608301358281111561145b57600080fd5b61146787828601611354565b60208301525095945050505050565b6000806040838503121561148957600080fd5b6114928361125a565b946020939093013593505050565b600080604083850312156114b357600080fd5b6114bc8361125a565b91506114ca6020840161125a565b90509250929050565b634e487b7160e01b600052602160045260246000fd5b81518152602082015160808201906003811061151557634e487b7160e01b600052602160045260246000fd5b80602084015250604083015151604083015267ffffffffffffffff606084015116606083015292915050565b60006020828403121561155357600080fd5b5035919050565b60006020828403121561156c57600080fd5b813567ffffffffffffffff8082111561158457600080fd5b908301906080828603121561159857600080fd5b6115a06112ae565b8235828111156115af57600080fd5b6115bb87828601611354565b8252506020830135828111156115d057600080fd5b6115dc87828601611354565b602083015250604083013560408201526115f86060840161125a565b606082015295945050505050565b600080600080600060a0868803121561161e57600080fd5b6116278661125a565b94506116356020870161125a565b93506040860135925060608601359150608086013567ffffffffffffffff81111561165f57600080fd5b61166b88828901611354565b9150509295509295909350565b6000806000806080858703121561168e57600080fd5b843567ffffffffffffffff808211156116a657600080fd5b6116b288838901611354565b955060208701359150808211156116c857600080fd5b506116d587828801611354565b935050604085013591506116eb6060860161125a565b905092959194509250565b634e487b7160e01b600052601160045260246000fd5b67ffffffffffffffff81811683821601908082111561172d5761172d6116f6565b5092915050565b80820180821115610abf57610abf6116f6565b81810381811115610abf57610abf6116f6565b60006020828403121561176c57600080fd5b8151801515811461129157600080fd5b6000815180845260005b818110156117a257602081850181015186830182015201611786565b506000602082860101526020601f19601f83011685010191505092915050565b85815260a0602082015260006117db60a083018761177c565b82810360408401526117ed818761177c565b9150508360608301526001600160a01b03831660808301529695505050505050565b60ff8181168382160190811115610abf57610abf6116f656fea2646970667358221220f77ca302b273a3fa322606536fe1171351e53091095da56a0c34e0d032acad6764736f6c63430008110033",
  "linkReferences": {},
  "deployedLinkReferences": {}
}